{
  "_format": "hh-sol-artifact-1",
  "contractName": "IndexIt",
  "sourceName": "contracts/IndexIt.sol",
  "abi": [
    {
      "inputs": [],
      "stateMutability": "nonpayable",
      "type": "constructor"
    },
    {
      "anonymous": false,
      "inputs": [
        {
          "indexed": true,
          "internalType": "address",
          "name": "owner",
          "type": "address"
        },
        {
          "indexed": true,
          "internalType": "address",
          "name": "approved",
          "type": "address"
        },
        {
          "indexed": true,
          "internalType": "uint256",
          "name": "tokenId",
          "type": "uint256"
        }
      ],
      "name": "Approval",
      "type": "event"
    },
    {
      "anonymous": false,
      "inputs": [
        {
          "indexed": true,
          "internalType": "address",
          "name": "owner",
          "type": "address"
        },
        {
          "indexed": true,
          "internalType": "address",
          "name": "operator",
          "type": "address"
        },
        {
          "indexed": false,
          "internalType": "bool",
          "name": "approved",
          "type": "bool"
        }
      ],
      "name": "ApprovalForAll",
      "type": "event"
    },
    {
      "anonymous": false,
      "inputs": [
        {
          "indexed": true,
          "internalType": "address",
          "name": "previousOwner",
          "type": "address"
        },
        {
          "indexed": true,
          "internalType": "address",
          "name": "newOwner",
          "type": "address"
        }
      ],
      "name": "OwnershipTransferred",
      "type": "event"
    },
    {
      "anonymous": false,
      "inputs": [
        {
          "indexed": true,
          "internalType": "address",
          "name": "",
          "type": "address"
        },
        {
          "indexed": true,
          "internalType": "address",
          "name": "",
          "type": "address"
        }
      ],
      "name": "Sig",
      "type": "event"
    },
    {
      "anonymous": false,
      "inputs": [
        {
          "indexed": true,
          "internalType": "address",
          "name": "from",
          "type": "address"
        },
        {
          "indexed": true,
          "internalType": "address",
          "name": "to",
          "type": "address"
        },
        {
          "indexed": true,
          "internalType": "uint256",
          "name": "tokenId",
          "type": "uint256"
        }
      ],
      "name": "Transfer",
      "type": "event"
    },
    {
      "inputs": [
        {
          "internalType": "address",
          "name": "to",
          "type": "address"
        },
        {
          "internalType": "uint256",
          "name": "tokenId",
          "type": "uint256"
        }
      ],
      "name": "approve",
      "outputs": [],
      "stateMutability": "nonpayable",
      "type": "function"
    },
    {
      "inputs": [
        {
          "internalType": "address",
          "name": "owner",
          "type": "address"
        }
      ],
      "name": "balanceOf",
      "outputs": [
        {
          "internalType": "uint256",
          "name": "",
          "type": "uint256"
        }
      ],
      "stateMutability": "view",
      "type": "function"
    },
    {
      "inputs": [
        {
          "internalType": "uint256",
          "name": "tokenId",
          "type": "uint256"
        }
      ],
      "name": "getApproved",
      "outputs": [
        {
          "internalType": "address",
          "name": "",
          "type": "address"
        }
      ],
      "stateMutability": "view",
      "type": "function"
    },
    {
      "inputs": [
        {
          "internalType": "address",
          "name": "owner",
          "type": "address"
        },
        {
          "internalType": "address",
          "name": "operator",
          "type": "address"
        }
      ],
      "name": "isApprovedForAll",
      "outputs": [
        {
          "internalType": "bool",
          "name": "",
          "type": "bool"
        }
      ],
      "stateMutability": "view",
      "type": "function"
    },
    {
      "inputs": [
        {
          "internalType": "bytes32",
          "name": "hash",
          "type": "bytes32"
        },
        {
          "internalType": "string",
          "name": "message",
          "type": "string"
        },
        {
          "internalType": "bytes",
          "name": "signature",
          "type": "bytes"
        },
        {
          "internalType": "string",
          "name": "uri",
          "type": "string"
        },
        {
          "internalType": "string",
          "name": "name",
          "type": "string"
        }
      ],
      "name": "mintToken",
      "outputs": [],
      "stateMutability": "payable",
      "type": "function"
    },
    {
      "inputs": [],
      "name": "name",
      "outputs": [
        {
          "internalType": "string",
          "name": "",
          "type": "string"
        }
      ],
      "stateMutability": "view",
      "type": "function"
    },
    {
      "inputs": [],
      "name": "owner",
      "outputs": [
        {
          "internalType": "address",
          "name": "",
          "type": "address"
        }
      ],
      "stateMutability": "view",
      "type": "function"
    },
    {
      "inputs": [
        {
          "internalType": "uint256",
          "name": "tokenId",
          "type": "uint256"
        }
      ],
      "name": "ownerOf",
      "outputs": [
        {
          "internalType": "address",
          "name": "",
          "type": "address"
        }
      ],
      "stateMutability": "view",
      "type": "function"
    },
    {
      "inputs": [
        {
          "internalType": "string",
          "name": "name",
          "type": "string"
        }
      ],
      "name": "price",
      "outputs": [
        {
          "internalType": "uint256",
          "name": "",
          "type": "uint256"
        }
      ],
      "stateMutability": "pure",
      "type": "function"
    },
    {
      "inputs": [],
      "name": "price0x100kClub",
      "outputs": [
        {
          "internalType": "uint256",
          "name": "",
          "type": "uint256"
        }
      ],
      "stateMutability": "view",
      "type": "function"
    },
    {
      "inputs": [],
      "name": "price10kClub",
      "outputs": [
        {
          "internalType": "uint256",
          "name": "",
          "type": "uint256"
        }
      ],
      "stateMutability": "view",
      "type": "function"
    },
    {
      "inputs": [],
      "name": "price999Club",
      "outputs": [
        {
          "internalType": "uint256",
          "name": "",
          "type": "uint256"
        }
      ],
      "stateMutability": "view",
      "type": "function"
    },
    {
      "inputs": [],
      "name": "priceIdiotClub",
      "outputs": [
        {
          "internalType": "uint256",
          "name": "",
          "type": "uint256"
        }
      ],
      "stateMutability": "view",
      "type": "function"
    },
    {
      "inputs": [],
      "name": "renounceOwnership",
      "outputs": [],
      "stateMutability": "nonpayable",
      "type": "function"
    },
    {
      "inputs": [
        {
          "internalType": "address",
          "name": "from",
          "type": "address"
        },
        {
          "internalType": "address",
          "name": "to",
          "type": "address"
        },
        {
          "internalType": "uint256",
          "name": "tokenId",
          "type": "uint256"
        }
      ],
      "name": "safeTransferFrom",
      "outputs": [],
      "stateMutability": "nonpayable",
      "type": "function"
    },
    {
      "inputs": [
        {
          "internalType": "address",
          "name": "from",
          "type": "address"
        },
        {
          "internalType": "address",
          "name": "to",
          "type": "address"
        },
        {
          "internalType": "uint256",
          "name": "tokenId",
          "type": "uint256"
        },
        {
          "internalType": "bytes",
          "name": "_data",
          "type": "bytes"
        }
      ],
      "name": "safeTransferFrom",
      "outputs": [],
      "stateMutability": "nonpayable",
      "type": "function"
    },
    {
      "inputs": [
        {
          "internalType": "address",
          "name": "operator",
          "type": "address"
        },
        {
          "internalType": "bool",
          "name": "approved",
          "type": "bool"
        }
      ],
      "name": "setApprovalForAll",
      "outputs": [],
      "stateMutability": "nonpayable",
      "type": "function"
    },
    {
      "inputs": [
        {
          "internalType": "bytes4",
          "name": "interfaceId",
          "type": "bytes4"
        }
      ],
      "name": "supportsInterface",
      "outputs": [
        {
          "internalType": "bool",
          "name": "",
          "type": "bool"
        }
      ],
      "stateMutability": "view",
      "type": "function"
    },
    {
      "inputs": [],
      "name": "symbol",
      "outputs": [
        {
          "internalType": "string",
          "name": "",
          "type": "string"
        }
      ],
      "stateMutability": "view",
      "type": "function"
    },
    {
      "inputs": [
        {
          "internalType": "uint256",
          "name": "tokenId",
          "type": "uint256"
        }
      ],
      "name": "tokenURI",
      "outputs": [
        {
          "internalType": "string",
          "name": "",
          "type": "string"
        }
      ],
      "stateMutability": "view",
      "type": "function"
    },
    {
      "inputs": [
        {
          "internalType": "address",
          "name": "from",
          "type": "address"
        },
        {
          "internalType": "address",
          "name": "to",
          "type": "address"
        },
        {
          "internalType": "uint256",
          "name": "tokenId",
          "type": "uint256"
        }
      ],
      "name": "transferFrom",
      "outputs": [],
      "stateMutability": "nonpayable",
      "type": "function"
    },
    {
      "inputs": [
        {
          "internalType": "address",
          "name": "newOwner",
          "type": "address"
        }
      ],
      "name": "transferOwnership",
      "outputs": [],
      "stateMutability": "nonpayable",
      "type": "function"
    }
  ],
  "bytecode": "0x60806040523480156200001157600080fd5b506040518060400160405280600781526020017f496e6465784974000000000000000000000000000000000000000000000000008152506040518060400160405280600381526020017f4949540000000000000000000000000000000000000000000000000000000000815250816000908051906020019062000096929190620001a6565b508060019080519060200190620000af929190620001a6565b505050620000d2620000c6620000d860201b60201c565b620000e060201b60201c565b620002bb565b600033905090565b6000600760009054906101000a900473ffffffffffffffffffffffffffffffffffffffff16905081600760006101000a81548173ffffffffffffffffffffffffffffffffffffffff021916908373ffffffffffffffffffffffffffffffffffffffff1602179055508173ffffffffffffffffffffffffffffffffffffffff168173ffffffffffffffffffffffffffffffffffffffff167f8be0079c531659141344cd1fd0a4f28419497f9722a3daafe3b4186f6b6457e060405160405180910390a35050565b828054620001b49062000256565b90600052602060002090601f016020900481019282620001d8576000855562000224565b82601f10620001f357805160ff191683800117855562000224565b8280016001018555821562000224579182015b828111156200022357825182559160200191906001019062000206565b5b50905062000233919062000237565b5090565b5b808211156200025257600081600090555060010162000238565b5090565b600060028204905060018216806200026f57607f821691505b602082108114156200028657620002856200028c565b5b50919050565b7f4e487b7100000000000000000000000000000000000000000000000000000000600052602260045260246000fd5b613aa180620002cb6000396000f3fe6080604052600436106101355760003560e01c806370a08231116100ab578063b88d4fde1161006f578063b88d4fde14610416578063c87b56dd1461043f578063cfd5f2ec1461047c578063e985e9c514610498578063f2fde38b146104d5578063fe2c6198146104fe57610135565b806370a0823114610343578063715018a6146103805780638da5cb5b1461039757806395d89b41146103c2578063a22cb465146103ed57610135565b806323b872dd116100fd57806323b872dd146102335780632a0a205f1461025c5780632e1fb8741461028757806342842e0e146102b25780635973829a146102db5780636352211e1461030657610135565b806301ffc9a71461013a578063052b1bbd1461017757806306fdde03146101a2578063081812fc146101cd578063095ea7b31461020a575b600080fd5b34801561014657600080fd5b50610161600480360381019061015c919061272c565b61053b565b60405161016e9190612ceb565b60405180910390f35b34801561018357600080fd5b5061018c61061d565b604051610199919061303d565b60405180910390f35b3480156101ae57600080fd5b506101b7610622565b6040516101c49190612d7b565b60405180910390f35b3480156101d957600080fd5b506101f460048036038101906101ef91906127bf565b6106b4565b6040516102019190612c84565b60405180910390f35b34801561021657600080fd5b50610231600480360381019061022c9190612619565b610739565b005b34801561023f57600080fd5b5061025a60048036038101906102559190612513565b610851565b005b34801561026857600080fd5b506102716108b1565b60405161027e919061303d565b60405180910390f35b34801561029357600080fd5b5061029c6108b6565b6040516102a9919061303d565b60405180910390f35b3480156102be57600080fd5b506102d960048036038101906102d49190612513565b6108bb565b005b3480156102e757600080fd5b506102f06108db565b6040516102fd919061303d565b60405180910390f35b34801561031257600080fd5b5061032d600480360381019061032891906127bf565b6108e0565b60405161033a9190612c84565b60405180910390f35b34801561034f57600080fd5b5061036a600480360381019061036591906124ae565b610992565b604051610377919061303d565b60405180910390f35b34801561038c57600080fd5b50610395610a4a565b005b3480156103a357600080fd5b506103ac610ad2565b6040516103b99190612c84565b60405180910390f35b3480156103ce57600080fd5b506103d7610afc565b6040516103e49190612d7b565b60405180910390f35b3480156103f957600080fd5b50610414600480360381019061040f91906125dd565b610b8e565b005b34801561042257600080fd5b5061043d60048036038101906104389190612562565b610ba4565b005b34801561044b57600080fd5b50610466600480360381019061046191906127bf565b610c06565b6040516104739190612d7b565b60405180910390f35b61049660048036038101906104919190612655565b610d58565b005b3480156104a457600080fd5b506104bf60048036038101906104ba91906124d7565b610fa1565b6040516104cc9190612ceb565b60405180910390f35b3480156104e157600080fd5b506104fc60048036038101906104f791906124ae565b611035565b005b34801561050a57600080fd5b506105256004803603810190610520919061277e565b61112d565b604051610532919061303d565b60405180910390f35b60007f80ac58cd000000000000000000000000000000000000000000000000000000007bffffffffffffffffffffffffffffffffffffffffffffffffffffffff1916827bffffffffffffffffffffffffffffffffffffffffffffffffffffffff1916148061060657507f5b5e139f000000000000000000000000000000000000000000000000000000007bffffffffffffffffffffffffffffffffffffffffffffffffffffffff1916827bffffffffffffffffffffffffffffffffffffffffffffffffffffffff1916145b80610616575061061582611183565b5b9050919050565b600081565b606060008054610631906132aa565b80601f016020809104026020016040519081016040528092919081815260200182805461065d906132aa565b80156106aa5780601f1061067f576101008083540402835291602001916106aa565b820191906000526020600020905b81548152906001019060200180831161068d57829003601f168201915b5050505050905090565b60006106bf826111ed565b6106fe576040517f08c379a00000000000000000000000000000000000000000000000000000000081526004016106f590612f7d565b60405180910390fd5b6004600083815260200190815260200160002060009054906101000a900473ffffffffffffffffffffffffffffffffffffffff169050919050565b6000610744826108e0565b90508073ffffffffffffffffffffffffffffffffffffffff168373ffffffffffffffffffffffffffffffffffffffff1614156107b5576040517f08c379a00000000000000000000000000000000000000000000000000000000081526004016107ac90612ffd565b60405180910390fd5b8073ffffffffffffffffffffffffffffffffffffffff166107d4611259565b73ffffffffffffffffffffffffffffffffffffffff1614806108035750610802816107fd611259565b610fa1565b5b610842576040517f08c379a000000000000000000000000000000000000000000000000000000000815260040161083990612e9d565b60405180910390fd5b61084c8383611261565b505050565b61086261085c611259565b8261131a565b6108a1576040517f08c379a00000000000000000000000000000000000000000000000000000000081526004016108989061301d565b60405180910390fd5b6108ac8383836113f8565b505050565b600081565b600081565b6108d683838360405180602001604052806000815250610ba4565b505050565b600081565b6000806002600084815260200190815260200160002060009054906101000a900473ffffffffffffffffffffffffffffffffffffffff169050600073ffffffffffffffffffffffffffffffffffffffff168173ffffffffffffffffffffffffffffffffffffffff161415610989576040517f08c379a000000000000000000000000000000000000000000000000000000000815260040161098090612edd565b60405180910390fd5b80915050919050565b60008073ffffffffffffffffffffffffffffffffffffffff168273ffffffffffffffffffffffffffffffffffffffff161415610a03576040517f08c379a00000000000000000000000000000000000000000000000000000000081526004016109fa90612ebd565b60405180910390fd5b600360008373ffffffffffffffffffffffffffffffffffffffff1673ffffffffffffffffffffffffffffffffffffffff168152602001908152602001600020549050919050565b610a52611259565b73ffffffffffffffffffffffffffffffffffffffff16610a70610ad2565b73ffffffffffffffffffffffffffffffffffffffff1614610ac6576040517f08c379a0000000000000000000000000000000000000000000000000000000008152600401610abd90612f9d565b60405180910390fd5b610ad0600061165f565b565b6000600760009054906101000a900473ffffffffffffffffffffffffffffffffffffffff16905090565b606060018054610b0b906132aa565b80601f0160208091040260200160405190810160405280929190818152602001828054610b37906132aa565b8015610b845780601f10610b5957610100808354040283529160200191610b84565b820191906000526020600020905b815481529060010190602001808311610b6757829003601f168201915b5050505050905090565b610ba0610b99611259565b8383611725565b5050565b610bb5610baf611259565b8361131a565b610bf4576040517f08c379a0000000000000000000000000000000000000000000000000000000008152600401610beb9061301d565b60405180910390fd5b610c0084848484611892565b50505050565b6060610c11826111ed565b610c50576040517f08c379a0000000000000000000000000000000000000000000000000000000008152600401610c4790612f5d565b60405180910390fd5b6000600660008481526020019081526020016000208054610c70906132aa565b80601f0160208091040260200160405190810160405280929190818152602001828054610c9c906132aa565b8015610ce95780601f10610cbe57610100808354040283529160200191610ce9565b820191906000526020600020905b815481529060010190602001808311610ccc57829003601f168201915b505050505090506000610cfa6118ee565b9050600081511415610d10578192505050610d53565b600082511115610d45578082604051602001610d2d929190612bef565b60405160208183030381529060405292505050610d53565b610d4e84611905565b925050505b919050565b60008585604051602001610d6d929190612d06565b6040516020818303038152906040528051906020012090506000610d90826119ac565b90506000610d9e82876119dc565b90508073ffffffffffffffffffffffffffffffffffffffff163373ffffffffffffffffffffffffffffffffffffffff167f8e42bf972710eb9ec4a3cba44cd6869dae70f9ee4bb163403c8d5f7a4a50181460405160405180910390a38073ffffffffffffffffffffffffffffffffffffffff163373ffffffffffffffffffffffffffffffffffffffff1614610e68576040517f08c379a0000000000000000000000000000000000000000000000000000000008152600401610e5f90612e1d565b60405180910390fd5b6000610e746008611a51565b90506000610e818661112d565b905080341015610ec6576040517f08c379a0000000000000000000000000000000000000000000000000000000008152600401610ebd90612fdd565b60405180910390fd5b6000610f746040518060400160405280601c81526020017f68747470733a2f2f696e64657869742e636c75622f7075626c69632f00000000815250896040518060400160405280600181526020017f2f000000000000000000000000000000000000000000000000000000000000008152508b6040518060400160405280600581526020017f2e6a736f6e000000000000000000000000000000000000000000000000000000815250611a5f565b9050610f803384611a94565b610f8a8382611c6e565b610f946008611ce2565b5050505050505050505050565b6000600560008473ffffffffffffffffffffffffffffffffffffffff1673ffffffffffffffffffffffffffffffffffffffff16815260200190815260200160002060008373ffffffffffffffffffffffffffffffffffffffff1673ffffffffffffffffffffffffffffffffffffffff16815260200190815260200160002060009054906101000a900460ff16905092915050565b61103d611259565b73ffffffffffffffffffffffffffffffffffffffff1661105b610ad2565b73ffffffffffffffffffffffffffffffffffffffff16146110b1576040517f08c379a00000000000000000000000000000000000000000000000000000000081526004016110a890612f9d565b60405180910390fd5b600073ffffffffffffffffffffffffffffffffffffffff168173ffffffffffffffffffffffffffffffffffffffff161415611121576040517f08c379a000000000000000000000000000000000000000000000000000000000815260040161111890612dbd565b60405180910390fd5b61112a8161165f565b50565b60008061113983611cf8565b90506000600382141561114f5760009050611179565b60048214156111615760009050611178565b600582106111725760009050611177565b600090505b5b5b8092505050919050565b60007f01ffc9a7000000000000000000000000000000000000000000000000000000007bffffffffffffffffffffffffffffffffffffffffffffffffffffffff1916827bffffffffffffffffffffffffffffffffffffffffffffffffffffffff1916149050919050565b60008073ffffffffffffffffffffffffffffffffffffffff166002600084815260200190815260200160002060009054906101000a900473ffffffffffffffffffffffffffffffffffffffff1673ffffffffffffffffffffffffffffffffffffffff1614159050919050565b600033905090565b816004600083815260200190815260200160002060006101000a81548173ffffffffffffffffffffffffffffffffffffffff021916908373ffffffffffffffffffffffffffffffffffffffff160217905550808273ffffffffffffffffffffffffffffffffffffffff166112d4836108e0565b73ffffffffffffffffffffffffffffffffffffffff167f8c5be1e5ebec7d5bd14f71427d1e84f3dd0314c0f7b2291e5b200ac8c7c3b92560405160405180910390a45050565b6000611325826111ed565b611364576040517f08c379a000000000000000000000000000000000000000000000000000000000815260040161135b90612e7d565b60405180910390fd5b600061136f836108e0565b90508073ffffffffffffffffffffffffffffffffffffffff168473ffffffffffffffffffffffffffffffffffffffff1614806113b157506113b08185610fa1565b5b806113ef57508373ffffffffffffffffffffffffffffffffffffffff166113d7846106b4565b73ffffffffffffffffffffffffffffffffffffffff16145b91505092915050565b8273ffffffffffffffffffffffffffffffffffffffff16611418826108e0565b73ffffffffffffffffffffffffffffffffffffffff161461146e576040517f08c379a000000000000000000000000000000000000000000000000000000000815260040161146590612ddd565b60405180910390fd5b600073ffffffffffffffffffffffffffffffffffffffff168273ffffffffffffffffffffffffffffffffffffffff1614156114de576040517f08c379a00000000000000000000000000000000000000000000000000000000081526004016114d590612e3d565b60405180910390fd5b6114e9838383611ed3565b6114f4600082611261565b6001600360008573ffffffffffffffffffffffffffffffffffffffff1673ffffffffffffffffffffffffffffffffffffffff168152602001908152602001600020600082825461154491906131a9565b925050819055506001600360008473ffffffffffffffffffffffffffffffffffffffff1673ffffffffffffffffffffffffffffffffffffffff168152602001908152602001600020600082825461159b9190613122565b92505081905550816002600083815260200190815260200160002060006101000a81548173ffffffffffffffffffffffffffffffffffffffff021916908373ffffffffffffffffffffffffffffffffffffffff160217905550808273ffffffffffffffffffffffffffffffffffffffff168473ffffffffffffffffffffffffffffffffffffffff167fddf252ad1be2c89b69c2b068fc378daa952ba7f163c4a11628f55a4df523b3ef60405160405180910390a461165a838383611ed8565b505050565b6000600760009054906101000a900473ffffffffffffffffffffffffffffffffffffffff16905081600760006101000a81548173ffffffffffffffffffffffffffffffffffffffff021916908373ffffffffffffffffffffffffffffffffffffffff1602179055508173ffffffffffffffffffffffffffffffffffffffff168173ffffffffffffffffffffffffffffffffffffffff167f8be0079c531659141344cd1fd0a4f28419497f9722a3daafe3b4186f6b6457e060405160405180910390a35050565b8173ffffffffffffffffffffffffffffffffffffffff168373ffffffffffffffffffffffffffffffffffffffff161415611794576040517f08c379a000000000000000000000000000000000000000000000000000000000815260040161178b90612e5d565b60405180910390fd5b80600560008573ffffffffffffffffffffffffffffffffffffffff1673ffffffffffffffffffffffffffffffffffffffff16815260200190815260200160002060008473ffffffffffffffffffffffffffffffffffffffff1673ffffffffffffffffffffffffffffffffffffffff16815260200190815260200160002060006101000a81548160ff0219169083151502179055508173ffffffffffffffffffffffffffffffffffffffff168373ffffffffffffffffffffffffffffffffffffffff167f17307eab39ab6107e8899845ad3d59bd9653f200f220920489ca2b5937696c31836040516118859190612ceb565b60405180910390a3505050565b61189d8484846113f8565b6118a984848484611edd565b6118e8576040517f08c379a00000000000000000000000000000000000000000000000000000000081526004016118df90612d9d565b60405180910390fd5b50505050565b606060405180602001604052806000815250905090565b6060611910826111ed565b61194f576040517f08c379a000000000000000000000000000000000000000000000000000000000815260040161194690612fbd565b60405180910390fd5b60006119596118ee565b9050600081511161197957604051806020016040528060008152506119a4565b8061198384612074565b604051602001611994929190612bef565b6040516020818303038152906040525b915050919050565b6000816040516020016119bf9190612c5e565b604051602081830303815290604052805190602001209050919050565b6000806000806119eb85612221565b80935081945082955050505060018684848460405160008152602001604052604051611a1a9493929190612d36565b6020604051602081039080840390855afa158015611a3c573d6000803e3d6000fd5b50505060206040510351935050505092915050565b600081600001549050919050565b60608585858585604051602001611a7a959493929190612c13565b604051602081830303815290604052905095945050505050565b600073ffffffffffffffffffffffffffffffffffffffff168273ffffffffffffffffffffffffffffffffffffffff161415611b04576040517f08c379a0000000000000000000000000000000000000000000000000000000008152600401611afb90612f3d565b60405180910390fd5b611b0d816111ed565b15611b4d576040517f08c379a0000000000000000000000000000000000000000000000000000000008152600401611b4490612dfd565b60405180910390fd5b611b5960008383611ed3565b6001600360008473ffffffffffffffffffffffffffffffffffffffff1673ffffffffffffffffffffffffffffffffffffffff1681526020019081526020016000206000828254611ba99190613122565b92505081905550816002600083815260200190815260200160002060006101000a81548173ffffffffffffffffffffffffffffffffffffffff021916908373ffffffffffffffffffffffffffffffffffffffff160217905550808273ffffffffffffffffffffffffffffffffffffffff16600073ffffffffffffffffffffffffffffffffffffffff167fddf252ad1be2c89b69c2b068fc378daa952ba7f163c4a11628f55a4df523b3ef60405160405180910390a4611c6a60008383611ed8565b5050565b611c77826111ed565b611cb6576040517f08c379a0000000000000000000000000000000000000000000000000000000008152600401611cad90612f1d565b60405180910390fd5b80600660008481526020019081526020016000209080519060200190611cdd9291906122bd565b505050565b6001816000016000828254019250508190555050565b60008060008084519050600092505b80821015611ec8576000858381518110611d4a577f4e487b7100000000000000000000000000000000000000000000000000000000600052603260045260246000fd5b602001015160f81c60f81b9050608060f81b817effffffffffffffffffffffffffffffffffffffffffffffffffffffffffffff19161015611d9957600183611d929190613122565b9250611eb4565b60e060f81b817effffffffffffffffffffffffffffffffffffffffffffffffffffffffffffff19161015611ddb57600283611dd49190613122565b9250611eb3565b60f060f81b817effffffffffffffffffffffffffffffffffffffffffffffffffffffffffffff19161015611e1d57600383611e169190613122565b9250611eb2565b60f8801b817effffffffffffffffffffffffffffffffffffffffffffffffffffffffffffff19161015611e5e57600483611e579190613122565b9250611eb1565b60fc60f81b817effffffffffffffffffffffffffffffffffffffffffffffffffffffffffffff19161015611ea057600583611e999190613122565b9250611eb0565b600683611ead9190613122565b92505b5b5b5b5b508280611ec09061330d565b935050611d07565b829350505050919050565b505050565b505050565b6000611efe8473ffffffffffffffffffffffffffffffffffffffff1661229a565b15612067578373ffffffffffffffffffffffffffffffffffffffff1663150b7a02611f27611259565b8786866040518563ffffffff1660e01b8152600401611f499493929190612c9f565b602060405180830381600087803b158015611f6357600080fd5b505af1925050508015611f9457506040513d601f19601f82011682018060405250810190611f919190612755565b60015b612017573d8060008114611fc4576040519150601f19603f3d011682016040523d82523d6000602084013e611fc9565b606091505b5060008151141561200f576040517f08c379a000000000000000000000000000000000000000000000000000000000815260040161200690612d9d565b60405180910390fd5b805181602001fd5b63150b7a0260e01b7bffffffffffffffffffffffffffffffffffffffffffffffffffffffff1916817bffffffffffffffffffffffffffffffffffffffffffffffffffffffff19161491505061206c565b600190505b949350505050565b606060008214156120bc576040518060400160405280600181526020017f3000000000000000000000000000000000000000000000000000000000000000815250905061221c565b600082905060005b600082146120ee5780806120d79061330d565b915050600a826120e79190613178565b91506120c4565b60008167ffffffffffffffff811115612130577f4e487b7100000000000000000000000000000000000000000000000000000000600052604160045260246000fd5b6040519080825280601f01601f1916602001820160405280156121625781602001600182028036833780820191505090505b5090505b600085146122155760018261217b91906131a9565b9150600a8561218a9190613360565b60306121969190613122565b60f81b8183815181106121d2577f4e487b7100000000000000000000000000000000000000000000000000000000600052603260045260246000fd5b60200101907effffffffffffffffffffffffffffffffffffffffffffffffffffffffffffff1916908160001a905350600a8561220e9190613178565b9450612166565b8093505050505b919050565b6000806000604184511461226a576040517f08c379a000000000000000000000000000000000000000000000000000000000815260040161226190612efd565b60405180910390fd5b60008060006020870151925060408701519150606087015160001a90508083839550955095505050509193909250565b6000808273ffffffffffffffffffffffffffffffffffffffff163b119050919050565b8280546122c9906132aa565b90600052602060002090601f0160209004810192826122eb5760008555612332565b82601f1061230457805160ff1916838001178555612332565b82800160010185558215612332579182015b82811115612331578251825591602001919060010190612316565b5b50905061233f9190612343565b5090565b5b8082111561235c576000816000905550600101612344565b5090565b600061237361236e8461307d565b613058565b90508281526020810184848401111561238b57600080fd5b612396848285613268565b509392505050565b60006123b16123ac846130ae565b613058565b9050828152602081018484840111156123c957600080fd5b6123d4848285613268565b509392505050565b6000813590506123eb816139f8565b92915050565b60008135905061240081613a0f565b92915050565b60008135905061241581613a26565b92915050565b60008135905061242a81613a3d565b92915050565b60008151905061243f81613a3d565b92915050565b600082601f83011261245657600080fd5b8135612466848260208601612360565b91505092915050565b600082601f83011261248057600080fd5b813561249084826020860161239e565b91505092915050565b6000813590506124a881613a54565b92915050565b6000602082840312156124c057600080fd5b60006124ce848285016123dc565b91505092915050565b600080604083850312156124ea57600080fd5b60006124f8858286016123dc565b9250506020612509858286016123dc565b9150509250929050565b60008060006060848603121561252857600080fd5b6000612536868287016123dc565b9350506020612547868287016123dc565b925050604061255886828701612499565b9150509250925092565b6000806000806080858703121561257857600080fd5b6000612586878288016123dc565b9450506020612597878288016123dc565b93505060406125a887828801612499565b925050606085013567ffffffffffffffff8111156125c557600080fd5b6125d187828801612445565b91505092959194509250565b600080604083850312156125f057600080fd5b60006125fe858286016123dc565b925050602061260f858286016123f1565b9150509250929050565b6000806040838503121561262c57600080fd5b600061263a858286016123dc565b925050602061264b85828601612499565b9150509250929050565b600080600080600060a0868803121561266d57600080fd5b600061267b88828901612406565b955050602086013567ffffffffffffffff81111561269857600080fd5b6126a48882890161246f565b945050604086013567ffffffffffffffff8111156126c157600080fd5b6126cd88828901612445565b935050606086013567ffffffffffffffff8111156126ea57600080fd5b6126f68882890161246f565b925050608086013567ffffffffffffffff81111561271357600080fd5b61271f8882890161246f565b9150509295509295909350565b60006020828403121561273e57600080fd5b600061274c8482850161241b565b91505092915050565b60006020828403121561276757600080fd5b600061277584828501612430565b91505092915050565b60006020828403121561279057600080fd5b600082013567ffffffffffffffff8111156127aa57600080fd5b6127b68482850161246f565b91505092915050565b6000602082840312156127d157600080fd5b60006127df84828501612499565b91505092915050565b6127f1816131dd565b82525050565b612800816131ef565b82525050565b61280f816131fb565b82525050565b612826612821826131fb565b613356565b82525050565b6000612837826130df565b61284181856130f5565b9350612851818560208601613277565b61285a8161344d565b840191505092915050565b6000612870826130ea565b61287a8185613106565b935061288a818560208601613277565b6128938161344d565b840191505092915050565b60006128a9826130ea565b6128b38185613117565b93506128c3818560208601613277565b80840191505092915050565b60006128dc601c83613117565b91506128e78261345e565b601c82019050919050565b60006128ff603283613106565b915061290a82613487565b604082019050919050565b6000612922602683613106565b915061292d826134d6565b604082019050919050565b6000612945602583613106565b915061295082613525565b604082019050919050565b6000612968601c83613106565b915061297382613574565b602082019050919050565b600061298b601c83613106565b91506129968261359d565b602082019050919050565b60006129ae602483613106565b91506129b9826135c6565b604082019050919050565b60006129d1601983613106565b91506129dc82613615565b602082019050919050565b60006129f4602c83613106565b91506129ff8261363e565b604082019050919050565b6000612a17603883613106565b9150612a228261368d565b604082019050919050565b6000612a3a602a83613106565b9150612a45826136dc565b604082019050919050565b6000612a5d602983613106565b9150612a688261372b565b604082019050919050565b6000612a80601683613106565b9150612a8b8261377a565b602082019050919050565b6000612aa3602e83613106565b9150612aae826137a3565b604082019050919050565b6000612ac6602083613106565b9150612ad1826137f2565b602082019050919050565b6000612ae9603183613106565b9150612af48261381b565b604082019050919050565b6000612b0c602c83613106565b9150612b178261386a565b604082019050919050565b6000612b2f602083613106565b9150612b3a826138b9565b602082019050919050565b6000612b52602f83613106565b9150612b5d826138e2565b604082019050919050565b6000612b75601783613106565b9150612b8082613931565b602082019050919050565b6000612b98602183613106565b9150612ba38261395a565b604082019050919050565b6000612bbb603183613106565b9150612bc6826139a9565b604082019050919050565b612bda81613251565b82525050565b612be98161325b565b82525050565b6000612bfb828561289e565b9150612c07828461289e565b91508190509392505050565b6000612c1f828861289e565b9150612c2b828761289e565b9150612c37828661289e565b9150612c43828561289e565b9150612c4f828461289e565b91508190509695505050505050565b6000612c69826128cf565b9150612c758284612815565b60208201915081905092915050565b6000602082019050612c9960008301846127e8565b92915050565b6000608082019050612cb460008301876127e8565b612cc160208301866127e8565b612cce6040830185612bd1565b8181036060830152612ce0818461282c565b905095945050505050565b6000602082019050612d0060008301846127f7565b92915050565b6000604082019050612d1b6000830185612806565b8181036020830152612d2d8184612865565b90509392505050565b6000608082019050612d4b6000830187612806565b612d586020830186612be0565b612d656040830185612806565b612d726060830184612806565b95945050505050565b60006020820190508181036000830152612d958184612865565b905092915050565b60006020820190508181036000830152612db6816128f2565b9050919050565b60006020820190508181036000830152612dd681612915565b9050919050565b60006020820190508181036000830152612df681612938565b9050919050565b60006020820190508181036000830152612e168161295b565b9050919050565b60006020820190508181036000830152612e368161297e565b9050919050565b60006020820190508181036000830152612e56816129a1565b9050919050565b60006020820190508181036000830152612e76816129c4565b9050919050565b60006020820190508181036000830152612e96816129e7565b9050919050565b60006020820190508181036000830152612eb681612a0a565b9050919050565b60006020820190508181036000830152612ed681612a2d565b9050919050565b60006020820190508181036000830152612ef681612a50565b9050919050565b60006020820190508181036000830152612f1681612a73565b9050919050565b60006020820190508181036000830152612f3681612a96565b9050919050565b60006020820190508181036000830152612f5681612ab9565b9050919050565b60006020820190508181036000830152612f7681612adc565b9050919050565b60006020820190508181036000830152612f9681612aff565b9050919050565b60006020820190508181036000830152612fb681612b22565b9050919050565b60006020820190508181036000830152612fd681612b45565b9050919050565b60006020820190508181036000830152612ff681612b68565b9050919050565b6000602082019050818103600083015261301681612b8b565b9050919050565b6000602082019050818103600083015261303681612bae565b9050919050565b60006020820190506130526000830184612bd1565b92915050565b6000613062613073565b905061306e82826132dc565b919050565b6000604051905090565b600067ffffffffffffffff8211156130985761309761341e565b5b6130a18261344d565b9050602081019050919050565b600067ffffffffffffffff8211156130c9576130c861341e565b5b6130d28261344d565b9050602081019050919050565b600081519050919050565b600081519050919050565b600082825260208201905092915050565b600082825260208201905092915050565b600081905092915050565b600061312d82613251565b915061313883613251565b9250827fffffffffffffffffffffffffffffffffffffffffffffffffffffffffffffffff0382111561316d5761316c613391565b5b828201905092915050565b600061318382613251565b915061318e83613251565b92508261319e5761319d6133c0565b5b828204905092915050565b60006131b482613251565b91506131bf83613251565b9250828210156131d2576131d1613391565b5b828203905092915050565b60006131e882613231565b9050919050565b60008115159050919050565b6000819050919050565b60007fffffffff0000000000000000000000000000000000000000000000000000000082169050919050565b600073ffffffffffffffffffffffffffffffffffffffff82169050919050565b6000819050919050565b600060ff82169050919050565b82818337600083830152505050565b60005b8381101561329557808201518184015260208101905061327a565b838111156132a4576000848401525b50505050565b600060028204905060018216806132c257607f821691505b602082108114156132d6576132d56133ef565b5b50919050565b6132e58261344d565b810181811067ffffffffffffffff821117156133045761330361341e565b5b80604052505050565b600061331882613251565b91507fffffffffffffffffffffffffffffffffffffffffffffffffffffffffffffffff82141561334b5761334a613391565b5b600182019050919050565b6000819050919050565b600061336b82613251565b915061337683613251565b925082613386576133856133c0565b5b828206905092915050565b7f4e487b7100000000000000000000000000000000000000000000000000000000600052601160045260246000fd5b7f4e487b7100000000000000000000000000000000000000000000000000000000600052601260045260246000fd5b7f4e487b7100000000000000000000000000000000000000000000000000000000600052602260045260246000fd5b7f4e487b7100000000000000000000000000000000000000000000000000000000600052604160045260246000fd5b6000601f19601f8301169050919050565b7f19457468657265756d205369676e6564204d6573736167653a0a333200000000600082015250565b7f4552433732313a207472616e7366657220746f206e6f6e20455243373231526560008201527f63656976657220696d706c656d656e7465720000000000000000000000000000602082015250565b7f4f776e61626c653a206e6577206f776e657220697320746865207a65726f206160008201527f6464726573730000000000000000000000000000000000000000000000000000602082015250565b7f4552433732313a207472616e736665722066726f6d20696e636f72726563742060008201527f6f776e6572000000000000000000000000000000000000000000000000000000602082015250565b7f4552433732313a20746f6b656e20616c7265616479206d696e74656400000000600082015250565b7f5369676e657220646f6573206e6f74206d61746368206d696e74657200000000600082015250565b7f4552433732313a207472616e7366657220746f20746865207a65726f2061646460008201527f7265737300000000000000000000000000000000000000000000000000000000602082015250565b7f4552433732313a20617070726f766520746f2063616c6c657200000000000000600082015250565b7f4552433732313a206f70657261746f7220717565727920666f72206e6f6e657860008201527f697374656e7420746f6b656e0000000000000000000000000000000000000000602082015250565b7f4552433732313a20617070726f76652063616c6c6572206973206e6f74206f7760008201527f6e6572206e6f7220617070726f76656420666f7220616c6c0000000000000000602082015250565b7f4552433732313a2062616c616e636520717565727920666f7220746865207a6560008201527f726f206164647265737300000000000000000000000000000000000000000000602082015250565b7f4552433732313a206f776e657220717565727920666f72206e6f6e657869737460008201527f656e7420746f6b656e0000000000000000000000000000000000000000000000602082015250565b7f5369676e6174757265206c656e67746820213d20363500000000000000000000600082015250565b7f45524337323155524953746f726167653a2055524920736574206f66206e6f6e60008201527f6578697374656e7420746f6b656e000000000000000000000000000000000000602082015250565b7f4552433732313a206d696e7420746f20746865207a65726f2061646472657373600082015250565b7f45524337323155524953746f726167653a2055524920717565727920666f722060008201527f6e6f6e6578697374656e7420746f6b656e000000000000000000000000000000602082015250565b7f4552433732313a20617070726f76656420717565727920666f72206e6f6e657860008201527f697374656e7420746f6b656e0000000000000000000000000000000000000000602082015250565b7f4f776e61626c653a2063616c6c6572206973206e6f7420746865206f776e6572600082015250565b7f4552433732314d657461646174613a2055524920717565727920666f72206e6f60008201527f6e6578697374656e7420746f6b656e0000000000000000000000000000000000602082015250565b7f496e73756666696369656e742065746865722073656e74000000000000000000600082015250565b7f4552433732313a20617070726f76616c20746f2063757272656e74206f776e6560008201527f7200000000000000000000000000000000000000000000000000000000000000602082015250565b7f4552433732313a207472616e736665722063616c6c6572206973206e6f74206f60008201527f776e6572206e6f7220617070726f766564000000000000000000000000000000602082015250565b613a01816131dd565b8114613a0c57600080fd5b50565b613a18816131ef565b8114613a2357600080fd5b50565b613a2f816131fb565b8114613a3a57600080fd5b50565b613a4681613205565b8114613a5157600080fd5b50565b613a5d81613251565b8114613a6857600080fd5b5056fea2646970667358221220c1631b8d043eebc92f691e9f739c834c54a7208f1d3390c3d86cc0f97582d1fb64736f6c63430008040033",
  "linkReferences": {},
  "deployedLinkReferences": {}
}