{
  "_format": "hh-sol-artifact-1",
  "contractName": "IndexIt",
  "sourceName": "contracts/IndexIt.sol",
  "abi": [
    {
      "inputs": [],
      "stateMutability": "nonpayable",
      "type": "constructor"
    },
    {
      "anonymous": false,
      "inputs": [
        {
          "indexed": true,
          "internalType": "address",
          "name": "owner",
          "type": "address"
        },
        {
          "indexed": true,
          "internalType": "address",
          "name": "approved",
          "type": "address"
        },
        {
          "indexed": true,
          "internalType": "uint256",
          "name": "tokenId",
          "type": "uint256"
        }
      ],
      "name": "Approval",
      "type": "event"
    },
    {
      "anonymous": false,
      "inputs": [
        {
          "indexed": true,
          "internalType": "address",
          "name": "owner",
          "type": "address"
        },
        {
          "indexed": true,
          "internalType": "address",
          "name": "operator",
          "type": "address"
        },
        {
          "indexed": false,
          "internalType": "bool",
          "name": "approved",
          "type": "bool"
        }
      ],
      "name": "ApprovalForAll",
      "type": "event"
    },
    {
      "anonymous": false,
      "inputs": [
        {
          "indexed": true,
          "internalType": "address",
          "name": "previousOwner",
          "type": "address"
        },
        {
          "indexed": true,
          "internalType": "address",
          "name": "newOwner",
          "type": "address"
        }
      ],
      "name": "OwnershipTransferred",
      "type": "event"
    },
    {
      "anonymous": false,
      "inputs": [
        {
          "indexed": true,
          "internalType": "address",
          "name": "",
          "type": "address"
        },
        {
          "indexed": true,
          "internalType": "address",
          "name": "",
          "type": "address"
        },
        {
          "indexed": true,
          "internalType": "address",
          "name": "",
          "type": "address"
        }
      ],
      "name": "Print",
      "type": "event"
    },
    {
      "anonymous": false,
      "inputs": [
        {
          "indexed": true,
          "internalType": "address",
          "name": "from",
          "type": "address"
        },
        {
          "indexed": true,
          "internalType": "address",
          "name": "to",
          "type": "address"
        },
        {
          "indexed": true,
          "internalType": "uint256",
          "name": "tokenId",
          "type": "uint256"
        }
      ],
      "name": "Transfer",
      "type": "event"
    },
    {
      "inputs": [
        {
          "internalType": "address",
          "name": "to",
          "type": "address"
        },
        {
          "internalType": "uint256",
          "name": "tokenId",
          "type": "uint256"
        }
      ],
      "name": "approve",
      "outputs": [],
      "stateMutability": "nonpayable",
      "type": "function"
    },
    {
      "inputs": [
        {
          "internalType": "address",
          "name": "owner",
          "type": "address"
        }
      ],
      "name": "balanceOf",
      "outputs": [
        {
          "internalType": "uint256",
          "name": "",
          "type": "uint256"
        }
      ],
      "stateMutability": "view",
      "type": "function"
    },
    {
      "inputs": [
        {
          "internalType": "string",
          "name": "name",
          "type": "string"
        }
      ],
      "name": "computeNameHash",
      "outputs": [
        {
          "internalType": "bytes32",
          "name": "namehash",
          "type": "bytes32"
        }
      ],
      "stateMutability": "pure",
      "type": "function"
    },
    {
      "inputs": [
        {
          "internalType": "uint256",
          "name": "tokenId",
          "type": "uint256"
        }
      ],
      "name": "getApproved",
      "outputs": [
        {
          "internalType": "address",
          "name": "",
          "type": "address"
        }
      ],
      "stateMutability": "view",
      "type": "function"
    },
    {
      "inputs": [
        {
          "internalType": "address",
          "name": "owner",
          "type": "address"
        },
        {
          "internalType": "address",
          "name": "operator",
          "type": "address"
        }
      ],
      "name": "isApprovedForAll",
      "outputs": [
        {
          "internalType": "bool",
          "name": "",
          "type": "bool"
        }
      ],
      "stateMutability": "view",
      "type": "function"
    },
    {
      "inputs": [
        {
          "internalType": "bytes32",
          "name": "hash",
          "type": "bytes32"
        },
        {
          "internalType": "string",
          "name": "message",
          "type": "string"
        },
        {
          "internalType": "bytes",
          "name": "signature",
          "type": "bytes"
        },
        {
          "internalType": "string",
          "name": "uri",
          "type": "string"
        },
        {
          "internalType": "string",
          "name": "name",
          "type": "string"
        }
      ],
      "name": "mintToken",
      "outputs": [],
      "stateMutability": "payable",
      "type": "function"
    },
    {
      "inputs": [],
      "name": "name",
      "outputs": [
        {
          "internalType": "string",
          "name": "",
          "type": "string"
        }
      ],
      "stateMutability": "view",
      "type": "function"
    },
    {
      "inputs": [],
      "name": "owner",
      "outputs": [
        {
          "internalType": "address",
          "name": "",
          "type": "address"
        }
      ],
      "stateMutability": "view",
      "type": "function"
    },
    {
      "inputs": [
        {
          "internalType": "uint256",
          "name": "tokenId",
          "type": "uint256"
        }
      ],
      "name": "ownerOf",
      "outputs": [
        {
          "internalType": "address",
          "name": "",
          "type": "address"
        }
      ],
      "stateMutability": "view",
      "type": "function"
    },
    {
      "inputs": [
        {
          "internalType": "string",
          "name": "name",
          "type": "string"
        }
      ],
      "name": "price",
      "outputs": [
        {
          "internalType": "uint256",
          "name": "",
          "type": "uint256"
        }
      ],
      "stateMutability": "pure",
      "type": "function"
    },
    {
      "inputs": [],
      "name": "priceIdiotClub",
      "outputs": [
        {
          "internalType": "uint256",
          "name": "",
          "type": "uint256"
        }
      ],
      "stateMutability": "view",
      "type": "function"
    },
    {
      "inputs": [],
      "name": "priceTier1",
      "outputs": [
        {
          "internalType": "uint256",
          "name": "",
          "type": "uint256"
        }
      ],
      "stateMutability": "view",
      "type": "function"
    },
    {
      "inputs": [],
      "name": "priceTier2",
      "outputs": [
        {
          "internalType": "uint256",
          "name": "",
          "type": "uint256"
        }
      ],
      "stateMutability": "view",
      "type": "function"
    },
    {
      "inputs": [],
      "name": "priceTier3",
      "outputs": [
        {
          "internalType": "uint256",
          "name": "",
          "type": "uint256"
        }
      ],
      "stateMutability": "view",
      "type": "function"
    },
    {
      "inputs": [],
      "name": "renounceOwnership",
      "outputs": [],
      "stateMutability": "nonpayable",
      "type": "function"
    },
    {
      "inputs": [
        {
          "internalType": "bytes32",
          "name": "node",
          "type": "bytes32"
        }
      ],
      "name": "resolve",
      "outputs": [
        {
          "internalType": "address",
          "name": "",
          "type": "address"
        }
      ],
      "stateMutability": "view",
      "type": "function"
    },
    {
      "inputs": [
        {
          "internalType": "address",
          "name": "from",
          "type": "address"
        },
        {
          "internalType": "address",
          "name": "to",
          "type": "address"
        },
        {
          "internalType": "uint256",
          "name": "tokenId",
          "type": "uint256"
        }
      ],
      "name": "safeTransferFrom",
      "outputs": [],
      "stateMutability": "nonpayable",
      "type": "function"
    },
    {
      "inputs": [
        {
          "internalType": "address",
          "name": "from",
          "type": "address"
        },
        {
          "internalType": "address",
          "name": "to",
          "type": "address"
        },
        {
          "internalType": "uint256",
          "name": "tokenId",
          "type": "uint256"
        },
        {
          "internalType": "bytes",
          "name": "_data",
          "type": "bytes"
        }
      ],
      "name": "safeTransferFrom",
      "outputs": [],
      "stateMutability": "nonpayable",
      "type": "function"
    },
    {
      "inputs": [
        {
          "internalType": "address",
          "name": "operator",
          "type": "address"
        },
        {
          "internalType": "bool",
          "name": "approved",
          "type": "bool"
        }
      ],
      "name": "setApprovalForAll",
      "outputs": [],
      "stateMutability": "nonpayable",
      "type": "function"
    },
    {
      "inputs": [
        {
          "internalType": "bytes4",
          "name": "interfaceId",
          "type": "bytes4"
        }
      ],
      "name": "supportsInterface",
      "outputs": [
        {
          "internalType": "bool",
          "name": "",
          "type": "bool"
        }
      ],
      "stateMutability": "view",
      "type": "function"
    },
    {
      "inputs": [],
      "name": "symbol",
      "outputs": [
        {
          "internalType": "string",
          "name": "",
          "type": "string"
        }
      ],
      "stateMutability": "view",
      "type": "function"
    },
    {
      "inputs": [
        {
          "internalType": "uint256",
          "name": "tokenId",
          "type": "uint256"
        }
      ],
      "name": "tokenURI",
      "outputs": [
        {
          "internalType": "string",
          "name": "",
          "type": "string"
        }
      ],
      "stateMutability": "view",
      "type": "function"
    },
    {
      "inputs": [
        {
          "internalType": "address",
          "name": "from",
          "type": "address"
        },
        {
          "internalType": "address",
          "name": "to",
          "type": "address"
        },
        {
          "internalType": "uint256",
          "name": "tokenId",
          "type": "uint256"
        }
      ],
      "name": "transferFrom",
      "outputs": [],
      "stateMutability": "nonpayable",
      "type": "function"
    },
    {
      "inputs": [
        {
          "internalType": "address",
          "name": "newOwner",
          "type": "address"
        }
      ],
      "name": "transferOwnership",
      "outputs": [],
      "stateMutability": "nonpayable",
      "type": "function"
    }
  ],
  "bytecode": "0x60806040526e0c2e074ec69a0dfb2997ba6c7d2e1e600960006101000a81548173ffffffffffffffffffffffffffffffffffffffff021916908373ffffffffffffffffffffffffffffffffffffffff1602179055503480156200006157600080fd5b506040518060400160405280600981526020017f696e6465786974763000000000000000000000000000000000000000000000008152506040518060400160405280600481526020017f494e4430000000000000000000000000000000000000000000000000000000008152508160009080519060200190620000e6929190620001f6565b508060019080519060200190620000ff929190620001f6565b50505062000122620001166200012860201b60201c565b6200013060201b60201c565b6200030b565b600033905090565b6000600760009054906101000a900473ffffffffffffffffffffffffffffffffffffffff16905081600760006101000a81548173ffffffffffffffffffffffffffffffffffffffff021916908373ffffffffffffffffffffffffffffffffffffffff1602179055508173ffffffffffffffffffffffffffffffffffffffff168173ffffffffffffffffffffffffffffffffffffffff167f8be0079c531659141344cd1fd0a4f28419497f9722a3daafe3b4186f6b6457e060405160405180910390a35050565b8280546200020490620002a6565b90600052602060002090601f01602090048101928262000228576000855562000274565b82601f106200024357805160ff191683800117855562000274565b8280016001018555821562000274579182015b828111156200027357825182559160200191906001019062000256565b5b50905062000283919062000287565b5090565b5b80821115620002a257600081600090555060010162000288565b5090565b60006002820490506001821680620002bf57607f821691505b60208210811415620002d657620002d5620002dc565b5b50919050565b7f4e487b7100000000000000000000000000000000000000000000000000000000600052602260045260246000fd5b6140c5806200031b6000396000f3fe60806040526004361061014b5760003560e01c80638da5cb5b116100b6578063cfd5f2ec1161006f578063cfd5f2ec146104b6578063d383d9bb146104d2578063e985e9c5146104fd578063f1a837d01461053a578063f2fde38b14610565578063fe2c61981461058e5761014b565b80638da5cb5b146103945780638e75454f146103bf57806395d89b41146103fc578063a22cb46514610427578063b88d4fde14610450578063c87b56dd146104795761014b565b80632e53d474116101085780632e53d4741461027257806342842e0e1461029d5780635c23bdf5146102c65780636352211e1461030357806370a0823114610340578063715018a61461037d5761014b565b806301ffc9a71461015057806306fdde031461018d578063081812fc146101b8578063095ea7b3146101f557806323b872dd1461021e5780632e1fb87414610247575b600080fd5b34801561015c57600080fd5b5061017760048036038101906101729190612b67565b6105cb565b6040516101849190613210565b60405180910390f35b34801561019957600080fd5b506101a26106ad565b6040516101af91906132bb565b60405180910390f35b3480156101c457600080fd5b506101df60048036038101906101da9190612c23565b61073f565b6040516101ec91906131a9565b60405180910390f35b34801561020157600080fd5b5061021c60048036038101906102179190612a2b565b6107c4565b005b34801561022a57600080fd5b5061024560048036038101906102409190612925565b6108dc565b005b34801561025357600080fd5b5061025c61093c565b60405161026991906135bd565b60405180910390f35b34801561027e57600080fd5b50610287610948565b60405161029491906135bd565b60405180910390f35b3480156102a957600080fd5b506102c460048036038101906102bf9190612925565b610953565b005b3480156102d257600080fd5b506102ed60048036038101906102e89190612a67565b610973565b6040516102fa91906131a9565b60405180910390f35b34801561030f57600080fd5b5061032a60048036038101906103259190612c23565b610ab4565b60405161033791906131a9565b60405180910390f35b34801561034c57600080fd5b5061036760048036038101906103629190612897565b610b66565b60405161037491906135bd565b60405180910390f35b34801561038957600080fd5b50610392610c1e565b005b3480156103a057600080fd5b506103a9610ca6565b6040516103b691906131a9565b60405180910390f35b3480156103cb57600080fd5b506103e660048036038101906103e19190612be2565b610cd0565b6040516103f3919061322b565b60405180910390f35b34801561040857600080fd5b50610411610d7d565b60405161041e91906132bb565b60405180910390f35b34801561043357600080fd5b5061044e600480360381019061044991906129ef565b610e0f565b005b34801561045c57600080fd5b5061047760048036038101906104729190612974565b610e25565b005b34801561048557600080fd5b506104a0600480360381019061049b9190612c23565b610e87565b6040516104ad91906132bb565b60405180910390f35b6104d060048036038101906104cb9190612a90565b610fd9565b005b3480156104de57600080fd5b506104e7611331565b6040516104f491906135bd565b60405180910390f35b34801561050957600080fd5b50610524600480360381019061051f91906128e9565b61133c565b6040516105319190613210565b60405180910390f35b34801561054657600080fd5b5061054f6113d0565b60405161055c91906135bd565b60405180910390f35b34801561057157600080fd5b5061058c60048036038101906105879190612897565b6113db565b005b34801561059a57600080fd5b506105b560048036038101906105b09190612be2565b6114d3565b6040516105c291906135bd565b60405180910390f35b60007f80ac58cd000000000000000000000000000000000000000000000000000000007bffffffffffffffffffffffffffffffffffffffffffffffffffffffff1916827bffffffffffffffffffffffffffffffffffffffffffffffffffffffff1916148061069657507f5b5e139f000000000000000000000000000000000000000000000000000000007bffffffffffffffffffffffffffffffffffffffffffffffffffffffff1916827bffffffffffffffffffffffffffffffffffffffffffffffffffffffff1916145b806106a657506106a582611542565b5b9050919050565b6060600080546106bc9061383c565b80601f01602080910402602001604051908101604052809291908181526020018280546106e89061383c565b80156107355780601f1061070a57610100808354040283529160200191610735565b820191906000526020600020905b81548152906001019060200180831161071857829003601f168201915b5050505050905090565b600061074a826115ac565b610789576040517f08c379a0000000000000000000000000000000000000000000000000000000008152600401610780906134dd565b60405180910390fd5b6004600083815260200190815260200160002060009054906101000a900473ffffffffffffffffffffffffffffffffffffffff169050919050565b60006107cf82610ab4565b90508073ffffffffffffffffffffffffffffffffffffffff168373ffffffffffffffffffffffffffffffffffffffff161415610840576040517f08c379a00000000000000000000000000000000000000000000000000000000081526004016108379061355d565b60405180910390fd5b8073ffffffffffffffffffffffffffffffffffffffff1661085f611618565b73ffffffffffffffffffffffffffffffffffffffff16148061088e575061088d81610888611618565b61133c565b5b6108cd576040517f08c379a00000000000000000000000000000000000000000000000000000000081526004016108c4906133dd565b60405180910390fd5b6108d78383611620565b505050565b6108ed6108e7611618565b826116d9565b61092c576040517f08c379a00000000000000000000000000000000000000000000000000000000081526004016109239061359d565b60405180910390fd5b6109378383836117b7565b505050565b670de0b6b3a764000081565b662386f26fc1000081565b61096e83838360405180602001604052806000815250610e25565b505050565b600080600960009054906101000a900473ffffffffffffffffffffffffffffffffffffffff1673ffffffffffffffffffffffffffffffffffffffff16630178b8bf846040518263ffffffff1660e01b81526004016109d1919061322b565b60206040518083038186803b1580156109e957600080fd5b505afa1580156109fd573d6000803e3d6000fd5b505050506040513d601f19601f82011682018060405250810190610a219190612bb9565b90508073ffffffffffffffffffffffffffffffffffffffff16633b3b57de846040518263ffffffff1660e01b8152600401610a5c919061322b565b60206040518083038186803b158015610a7457600080fd5b505afa158015610a88573d6000803e3d6000fd5b505050506040513d601f19601f82011682018060405250810190610aac91906128c0565b915050919050565b6000806002600084815260200190815260200160002060009054906101000a900473ffffffffffffffffffffffffffffffffffffffff169050600073ffffffffffffffffffffffffffffffffffffffff168173ffffffffffffffffffffffffffffffffffffffff161415610b5d576040517f08c379a0000000000000000000000000000000000000000000000000000000008152600401610b549061341d565b60405180910390fd5b80915050919050565b60008073ffffffffffffffffffffffffffffffffffffffff168273ffffffffffffffffffffffffffffffffffffffff161415610bd7576040517f08c379a0000000000000000000000000000000000000000000000000000000008152600401610bce906133fd565b60405180910390fd5b600360008373ffffffffffffffffffffffffffffffffffffffff1673ffffffffffffffffffffffffffffffffffffffff168152602001908152602001600020549050919050565b610c26611618565b73ffffffffffffffffffffffffffffffffffffffff16610c44610ca6565b73ffffffffffffffffffffffffffffffffffffffff1614610c9a576040517f08c379a0000000000000000000000000000000000000000000000000000000008152600401610c91906134fd565b60405180910390fd5b610ca46000611a1e565b565b6000600760009054906101000a900473ffffffffffffffffffffffffffffffffffffffff16905090565b60008060001b905080604051602001610ce890613194565b60405160208183030381529060405280519060200120604051602001610d0f9291906130bc565b6040516020818303038152906040528051906020012090508082604051602001610d3991906130e8565b60405160208183030381529060405280519060200120604051602001610d609291906130bc565b604051602081830303815290604052805190602001209050919050565b606060018054610d8c9061383c565b80601f0160208091040260200160405190810160405280929190818152602001828054610db89061383c565b8015610e055780601f10610dda57610100808354040283529160200191610e05565b820191906000526020600020905b815481529060010190602001808311610de857829003601f168201915b5050505050905090565b610e21610e1a611618565b8383611ae4565b5050565b610e36610e30611618565b836116d9565b610e75576040517f08c379a0000000000000000000000000000000000000000000000000000000008152600401610e6c9061359d565b60405180910390fd5b610e8184848484611c51565b50505050565b6060610e92826115ac565b610ed1576040517f08c379a0000000000000000000000000000000000000000000000000000000008152600401610ec89061349d565b60405180910390fd5b6000600660008481526020019081526020016000208054610ef19061383c565b80601f0160208091040260200160405190810160405280929190818152602001828054610f1d9061383c565b8015610f6a5780601f10610f3f57610100808354040283529160200191610f6a565b820191906000526020600020905b815481529060010190602001808311610f4d57829003601f168201915b505050505090506000610f7b611cad565b9050600081511415610f91578192505050610fd4565b600082511115610fc6578082604051602001610fae9291906130ff565b60405160208183030381529060405292505050610fd4565b610fcf84611cc4565b925050505b919050565b60008585604051602001610fee929190613246565b604051602081830303815290604052805190602001209050600061101182611d6b565b9050600061101f8287611d9b565b9050600061102c85610cd0565b9050600061103982610973565b90508273ffffffffffffffffffffffffffffffffffffffff168173ffffffffffffffffffffffffffffffffffffffff163373ffffffffffffffffffffffffffffffffffffffff167f6fd4e1f8ce59629196e6fa47d615048365c434852d083d0e9e15f3bee177b1d860405160405180910390a48273ffffffffffffffffffffffffffffffffffffffff163373ffffffffffffffffffffffffffffffffffffffff161461111a576040517f08c379a0000000000000000000000000000000000000000000000000000000008152600401611111906132dd565b60405180910390fd5b8073ffffffffffffffffffffffffffffffffffffffff163373ffffffffffffffffffffffffffffffffffffffff1614611188576040517f08c379a000000000000000000000000000000000000000000000000000000000815260040161117f906134bd565b60405180910390fd5b8273ffffffffffffffffffffffffffffffffffffffff168173ffffffffffffffffffffffffffffffffffffffff16146111f6576040517f08c379a00000000000000000000000000000000000000000000000000000000081526004016111ed9061357d565b60405180910390fd5b60006112026008611e10565b9050600061120f886114d3565b905080341015611254576040517f08c379a000000000000000000000000000000000000000000000000000000000815260040161124b9061353d565b60405180910390fd5b60006113026040518060400160405280601c81526020017f68747470733a2f2f696e64657869742e636c75622f7075626c69632f000000008152508b6040518060400160405280600181526020017f2f000000000000000000000000000000000000000000000000000000000000008152508d6040518060400160405280600581526020017f2e6a736f6e000000000000000000000000000000000000000000000000000000815250611e1e565b905061130e3384611e53565b611318838261202d565b61132260086120a1565b50505050505050505050505050565b66038d7ea4c6800081565b6000600560008473ffffffffffffffffffffffffffffffffffffffff1673ffffffffffffffffffffffffffffffffffffffff16815260200190815260200160002060008373ffffffffffffffffffffffffffffffffffffffff1673ffffffffffffffffffffffffffffffffffffffff16815260200190815260200160002060009054906101000a900460ff16905092915050565b6601c6bf5263400081565b6113e3611618565b73ffffffffffffffffffffffffffffffffffffffff16611401610ca6565b73ffffffffffffffffffffffffffffffffffffffff1614611457576040517f08c379a000000000000000000000000000000000000000000000000000000000815260040161144e906134fd565b60405180910390fd5b600073ffffffffffffffffffffffffffffffffffffffff168173ffffffffffffffffffffffffffffffffffffffff1614156114c7576040517f08c379a00000000000000000000000000000000000000000000000000000000081526004016114be9061331d565b60405180910390fd5b6114d081611a1e565b50565b6000806114df836120b7565b9050600060038214156114fb57662386f26fc100009050611538565b60048214156115135766038d7ea4c680009050611537565b6005821061152a576601c6bf526340009050611536565b670de0b6b3a764000090505b5b5b8092505050919050565b60007f01ffc9a7000000000000000000000000000000000000000000000000000000007bffffffffffffffffffffffffffffffffffffffffffffffffffffffff1916827bffffffffffffffffffffffffffffffffffffffffffffffffffffffff1916149050919050565b60008073ffffffffffffffffffffffffffffffffffffffff166002600084815260200190815260200160002060009054906101000a900473ffffffffffffffffffffffffffffffffffffffff1673ffffffffffffffffffffffffffffffffffffffff1614159050919050565b600033905090565b816004600083815260200190815260200160002060006101000a81548173ffffffffffffffffffffffffffffffffffffffff021916908373ffffffffffffffffffffffffffffffffffffffff160217905550808273ffffffffffffffffffffffffffffffffffffffff1661169383610ab4565b73ffffffffffffffffffffffffffffffffffffffff167f8c5be1e5ebec7d5bd14f71427d1e84f3dd0314c0f7b2291e5b200ac8c7c3b92560405160405180910390a45050565b60006116e4826115ac565b611723576040517f08c379a000000000000000000000000000000000000000000000000000000000815260040161171a906133bd565b60405180910390fd5b600061172e83610ab4565b90508073ffffffffffffffffffffffffffffffffffffffff168473ffffffffffffffffffffffffffffffffffffffff161480611770575061176f818561133c565b5b806117ae57508373ffffffffffffffffffffffffffffffffffffffff166117968461073f565b73ffffffffffffffffffffffffffffffffffffffff16145b91505092915050565b8273ffffffffffffffffffffffffffffffffffffffff166117d782610ab4565b73ffffffffffffffffffffffffffffffffffffffff161461182d576040517f08c379a00000000000000000000000000000000000000000000000000000000081526004016118249061333d565b60405180910390fd5b600073ffffffffffffffffffffffffffffffffffffffff168273ffffffffffffffffffffffffffffffffffffffff16141561189d576040517f08c379a00000000000000000000000000000000000000000000000000000000081526004016118949061337d565b60405180910390fd5b6118a8838383612292565b6118b3600082611620565b6001600360008573ffffffffffffffffffffffffffffffffffffffff1673ffffffffffffffffffffffffffffffffffffffff16815260200190815260200160002060008282546119039190613729565b925050819055506001600360008473ffffffffffffffffffffffffffffffffffffffff1673ffffffffffffffffffffffffffffffffffffffff168152602001908152602001600020600082825461195a91906136a2565b92505081905550816002600083815260200190815260200160002060006101000a81548173ffffffffffffffffffffffffffffffffffffffff021916908373ffffffffffffffffffffffffffffffffffffffff160217905550808273ffffffffffffffffffffffffffffffffffffffff168473ffffffffffffffffffffffffffffffffffffffff167fddf252ad1be2c89b69c2b068fc378daa952ba7f163c4a11628f55a4df523b3ef60405160405180910390a4611a19838383612297565b505050565b6000600760009054906101000a900473ffffffffffffffffffffffffffffffffffffffff16905081600760006101000a81548173ffffffffffffffffffffffffffffffffffffffff021916908373ffffffffffffffffffffffffffffffffffffffff1602179055508173ffffffffffffffffffffffffffffffffffffffff168173ffffffffffffffffffffffffffffffffffffffff167f8be0079c531659141344cd1fd0a4f28419497f9722a3daafe3b4186f6b6457e060405160405180910390a35050565b8173ffffffffffffffffffffffffffffffffffffffff168373ffffffffffffffffffffffffffffffffffffffff161415611b53576040517f08c379a0000000000000000000000000000000000000000000000000000000008152600401611b4a9061339d565b60405180910390fd5b80600560008573ffffffffffffffffffffffffffffffffffffffff1673ffffffffffffffffffffffffffffffffffffffff16815260200190815260200160002060008473ffffffffffffffffffffffffffffffffffffffff1673ffffffffffffffffffffffffffffffffffffffff16815260200190815260200160002060006101000a81548160ff0219169083151502179055508173ffffffffffffffffffffffffffffffffffffffff168373ffffffffffffffffffffffffffffffffffffffff167f17307eab39ab6107e8899845ad3d59bd9653f200f220920489ca2b5937696c3183604051611c449190613210565b60405180910390a3505050565b611c5c8484846117b7565b611c688484848461229c565b611ca7576040517f08c379a0000000000000000000000000000000000000000000000000000000008152600401611c9e906132fd565b60405180910390fd5b50505050565b606060405180602001604052806000815250905090565b6060611ccf826115ac565b611d0e576040517f08c379a0000000000000000000000000000000000000000000000000000000008152600401611d059061351d565b60405180910390fd5b6000611d18611cad565b90506000815111611d385760405180602001604052806000815250611d63565b80611d4284612433565b604051602001611d539291906130ff565b6040516020818303038152906040525b915050919050565b600081604051602001611d7e919061316e565b604051602081830303815290604052805190602001209050919050565b600080600080611daa856125e0565b80935081945082955050505060018684848460405160008152602001604052604051611dd99493929190613276565b6020604051602081039080840390855afa158015611dfb573d6000803e3d6000fd5b50505060206040510351935050505092915050565b600081600001549050919050565b60608585858585604051602001611e39959493929190613123565b604051602081830303815290604052905095945050505050565b600073ffffffffffffffffffffffffffffffffffffffff168273ffffffffffffffffffffffffffffffffffffffff161415611ec3576040517f08c379a0000000000000000000000000000000000000000000000000000000008152600401611eba9061347d565b60405180910390fd5b611ecc816115ac565b15611f0c576040517f08c379a0000000000000000000000000000000000000000000000000000000008152600401611f039061335d565b60405180910390fd5b611f1860008383612292565b6001600360008473ffffffffffffffffffffffffffffffffffffffff1673ffffffffffffffffffffffffffffffffffffffff1681526020019081526020016000206000828254611f6891906136a2565b92505081905550816002600083815260200190815260200160002060006101000a81548173ffffffffffffffffffffffffffffffffffffffff021916908373ffffffffffffffffffffffffffffffffffffffff160217905550808273ffffffffffffffffffffffffffffffffffffffff16600073ffffffffffffffffffffffffffffffffffffffff167fddf252ad1be2c89b69c2b068fc378daa952ba7f163c4a11628f55a4df523b3ef60405160405180910390a461202960008383612297565b5050565b612036826115ac565b612075576040517f08c379a000000000000000000000000000000000000000000000000000000000815260040161206c9061345d565b60405180910390fd5b8060066000848152602001908152602001600020908051906020019061209c92919061267c565b505050565b6001816000016000828254019250508190555050565b60008060008084519050600092505b80821015612287576000858381518110612109577f4e487b7100000000000000000000000000000000000000000000000000000000600052603260045260246000fd5b602001015160f81c60f81b9050608060f81b817effffffffffffffffffffffffffffffffffffffffffffffffffffffffffffff191610156121585760018361215191906136a2565b9250612273565b60e060f81b817effffffffffffffffffffffffffffffffffffffffffffffffffffffffffffff1916101561219a5760028361219391906136a2565b9250612272565b60f060f81b817effffffffffffffffffffffffffffffffffffffffffffffffffffffffffffff191610156121dc576003836121d591906136a2565b9250612271565b60f8801b817effffffffffffffffffffffffffffffffffffffffffffffffffffffffffffff1916101561221d5760048361221691906136a2565b9250612270565b60fc60f81b817effffffffffffffffffffffffffffffffffffffffffffffffffffffffffffff1916101561225f5760058361225891906136a2565b925061226f565b60068361226c91906136a2565b92505b5b5b5b5b50828061227f9061389f565b9350506120c6565b829350505050919050565b505050565b505050565b60006122bd8473ffffffffffffffffffffffffffffffffffffffff16612659565b15612426578373ffffffffffffffffffffffffffffffffffffffff1663150b7a026122e6611618565b8786866040518563ffffffff1660e01b815260040161230894939291906131c4565b602060405180830381600087803b15801561232257600080fd5b505af192505050801561235357506040513d601f19601f820116820180604052508101906123509190612b90565b60015b6123d6573d8060008114612383576040519150601f19603f3d011682016040523d82523d6000602084013e612388565b606091505b506000815114156123ce576040517f08c379a00000000000000000000000000000000000000000000000000000000081526004016123c5906132fd565b60405180910390fd5b805181602001fd5b63150b7a0260e01b7bffffffffffffffffffffffffffffffffffffffffffffffffffffffff1916817bffffffffffffffffffffffffffffffffffffffffffffffffffffffff19161491505061242b565b600190505b949350505050565b6060600082141561247b576040518060400160405280600181526020017f300000000000000000000000000000000000000000000000000000000000000081525090506125db565b600082905060005b600082146124ad5780806124969061389f565b915050600a826124a691906136f8565b9150612483565b60008167ffffffffffffffff8111156124ef577f4e487b7100000000000000000000000000000000000000000000000000000000600052604160045260246000fd5b6040519080825280601f01601f1916602001820160405280156125215781602001600182028036833780820191505090505b5090505b600085146125d45760018261253a9190613729565b9150600a8561254991906138f2565b603061255591906136a2565b60f81b818381518110612591577f4e487b7100000000000000000000000000000000000000000000000000000000600052603260045260246000fd5b60200101907effffffffffffffffffffffffffffffffffffffffffffffffffffffffffffff1916908160001a905350600a856125cd91906136f8565b9450612525565b8093505050505b919050565b60008060006041845114612629576040517f08c379a00000000000000000000000000000000000000000000000000000000081526004016126209061343d565b60405180910390fd5b60008060006020870151925060408701519150606087015160001a90508083839550955095505050509193909250565b6000808273ffffffffffffffffffffffffffffffffffffffff163b119050919050565b8280546126889061383c565b90600052602060002090601f0160209004810192826126aa57600085556126f1565b82601f106126c357805160ff19168380011785556126f1565b828001600101855582156126f1579182015b828111156126f05782518255916020019190600101906126d5565b5b5090506126fe9190612702565b5090565b5b8082111561271b576000816000905550600101612703565b5090565b600061273261272d846135fd565b6135d8565b90508281526020810184848401111561274a57600080fd5b6127558482856137fa565b509392505050565b600061277061276b8461362e565b6135d8565b90508281526020810184848401111561278857600080fd5b6127938482856137fa565b509392505050565b6000813590506127aa81614005565b92915050565b6000815190506127bf81614005565b92915050565b6000813590506127d48161401c565b92915050565b6000813590506127e981614033565b92915050565b6000813590506127fe8161404a565b92915050565b6000815190506128138161404a565b92915050565b600082601f83011261282a57600080fd5b813561283a84826020860161271f565b91505092915050565b60008151905061285281614061565b92915050565b600082601f83011261286957600080fd5b813561287984826020860161275d565b91505092915050565b60008135905061289181614078565b92915050565b6000602082840312156128a957600080fd5b60006128b78482850161279b565b91505092915050565b6000602082840312156128d257600080fd5b60006128e0848285016127b0565b91505092915050565b600080604083850312156128fc57600080fd5b600061290a8582860161279b565b925050602061291b8582860161279b565b9150509250929050565b60008060006060848603121561293a57600080fd5b60006129488682870161279b565b93505060206129598682870161279b565b925050604061296a86828701612882565b9150509250925092565b6000806000806080858703121561298a57600080fd5b60006129988782880161279b565b94505060206129a98782880161279b565b93505060406129ba87828801612882565b925050606085013567ffffffffffffffff8111156129d757600080fd5b6129e387828801612819565b91505092959194509250565b60008060408385031215612a0257600080fd5b6000612a108582860161279b565b9250506020612a21858286016127c5565b9150509250929050565b60008060408385031215612a3e57600080fd5b6000612a4c8582860161279b565b9250506020612a5d85828601612882565b9150509250929050565b600060208284031215612a7957600080fd5b6000612a87848285016127da565b91505092915050565b600080600080600060a08688031215612aa857600080fd5b6000612ab6888289016127da565b955050602086013567ffffffffffffffff811115612ad357600080fd5b612adf88828901612858565b945050604086013567ffffffffffffffff811115612afc57600080fd5b612b0888828901612819565b935050606086013567ffffffffffffffff811115612b2557600080fd5b612b3188828901612858565b925050608086013567ffffffffffffffff811115612b4e57600080fd5b612b5a88828901612858565b9150509295509295909350565b600060208284031215612b7957600080fd5b6000612b87848285016127ef565b91505092915050565b600060208284031215612ba257600080fd5b6000612bb084828501612804565b91505092915050565b600060208284031215612bcb57600080fd5b6000612bd984828501612843565b91505092915050565b600060208284031215612bf457600080fd5b600082013567ffffffffffffffff811115612c0e57600080fd5b612c1a84828501612858565b91505092915050565b600060208284031215612c3557600080fd5b6000612c4384828501612882565b91505092915050565b612c558161375d565b82525050565b612c648161376f565b82525050565b612c738161377b565b82525050565b612c8a612c858261377b565b6138e8565b82525050565b6000612c9b8261365f565b612ca58185613675565b9350612cb5818560208601613809565b612cbe816139df565b840191505092915050565b6000612cd48261366a565b612cde8185613686565b9350612cee818560208601613809565b612cf7816139df565b840191505092915050565b6000612d0d8261366a565b612d178185613697565b9350612d27818560208601613809565b80840191505092915050565b6000612d40601c83613686565b9150612d4b826139f0565b602082019050919050565b6000612d63601c83613697565b9150612d6e82613a19565b601c82019050919050565b6000612d86603283613686565b9150612d9182613a42565b604082019050919050565b6000612da9602683613686565b9150612db482613a91565b604082019050919050565b6000612dcc602583613686565b9150612dd782613ae0565b604082019050919050565b6000612def601c83613686565b9150612dfa82613b2f565b602082019050919050565b6000612e12602483613686565b9150612e1d82613b58565b604082019050919050565b6000612e35601983613686565b9150612e4082613ba7565b602082019050919050565b6000612e58600383613697565b9150612e6382613bd0565b600382019050919050565b6000612e7b602c83613686565b9150612e8682613bf9565b604082019050919050565b6000612e9e603883613686565b9150612ea982613c48565b604082019050919050565b6000612ec1602a83613686565b9150612ecc82613c97565b604082019050919050565b6000612ee4602983613686565b9150612eef82613ce6565b604082019050919050565b6000612f07601683613686565b9150612f1282613d35565b602082019050919050565b6000612f2a602e83613686565b9150612f3582613d5e565b604082019050919050565b6000612f4d602083613686565b9150612f5882613dad565b602082019050919050565b6000612f70603183613686565b9150612f7b82613dd6565b604082019050919050565b6000612f93601b83613686565b9150612f9e82613e25565b602082019050919050565b6000612fb6602c83613686565b9150612fc182613e4e565b604082019050919050565b6000612fd9602083613686565b9150612fe482613e9d565b602082019050919050565b6000612ffc602f83613686565b915061300782613ec6565b604082019050919050565b600061301f601783613686565b915061302a82613f15565b602082019050919050565b6000613042602183613686565b915061304d82613f3e565b604082019050919050565b6000613065601b83613686565b915061307082613f8d565b602082019050919050565b6000613088603183613686565b915061309382613fb6565b604082019050919050565b6130a7816137e3565b82525050565b6130b6816137ed565b82525050565b60006130c88285612c79565b6020820191506130d88284612c79565b6020820191508190509392505050565b60006130f48284612d02565b915081905092915050565b600061310b8285612d02565b91506131178284612d02565b91508190509392505050565b600061312f8288612d02565b915061313b8287612d02565b91506131478286612d02565b91506131538285612d02565b915061315f8284612d02565b91508190509695505050505050565b600061317982612d56565b91506131858284612c79565b60208201915081905092915050565b600061319f82612e4b565b9150819050919050565b60006020820190506131be6000830184612c4c565b92915050565b60006080820190506131d96000830187612c4c565b6131e66020830186612c4c565b6131f3604083018561309e565b81810360608301526132058184612c90565b905095945050505050565b60006020820190506132256000830184612c5b565b92915050565b60006020820190506132406000830184612c6a565b92915050565b600060408201905061325b6000830185612c6a565b818103602083015261326d8184612cc9565b90509392505050565b600060808201905061328b6000830187612c6a565b61329860208301866130ad565b6132a56040830185612c6a565b6132b26060830184612c6a565b95945050505050565b600060208201905081810360008301526132d58184612cc9565b905092915050565b600060208201905081810360008301526132f681612d33565b9050919050565b6000602082019050818103600083015261331681612d79565b9050919050565b6000602082019050818103600083015261333681612d9c565b9050919050565b6000602082019050818103600083015261335681612dbf565b9050919050565b6000602082019050818103600083015261337681612de2565b9050919050565b6000602082019050818103600083015261339681612e05565b9050919050565b600060208201905081810360008301526133b681612e28565b9050919050565b600060208201905081810360008301526133d681612e6e565b9050919050565b600060208201905081810360008301526133f681612e91565b9050919050565b6000602082019050818103600083015261341681612eb4565b9050919050565b6000602082019050818103600083015261343681612ed7565b9050919050565b6000602082019050818103600083015261345681612efa565b9050919050565b6000602082019050818103600083015261347681612f1d565b9050919050565b6000602082019050818103600083015261349681612f40565b9050919050565b600060208201905081810360008301526134b681612f63565b9050919050565b600060208201905081810360008301526134d681612f86565b9050919050565b600060208201905081810360008301526134f681612fa9565b9050919050565b6000602082019050818103600083015261351681612fcc565b9050919050565b6000602082019050818103600083015261353681612fef565b9050919050565b6000602082019050818103600083015261355681613012565b9050919050565b6000602082019050818103600083015261357681613035565b9050919050565b6000602082019050818103600083015261359681613058565b9050919050565b600060208201905081810360008301526135b68161307b565b9050919050565b60006020820190506135d2600083018461309e565b92915050565b60006135e26135f3565b90506135ee828261386e565b919050565b6000604051905090565b600067ffffffffffffffff821115613618576136176139b0565b5b613621826139df565b9050602081019050919050565b600067ffffffffffffffff821115613649576136486139b0565b5b613652826139df565b9050602081019050919050565b600081519050919050565b600081519050919050565b600082825260208201905092915050565b600082825260208201905092915050565b600081905092915050565b60006136ad826137e3565b91506136b8836137e3565b9250827fffffffffffffffffffffffffffffffffffffffffffffffffffffffffffffffff038211156136ed576136ec613923565b5b828201905092915050565b6000613703826137e3565b915061370e836137e3565b92508261371e5761371d613952565b5b828204905092915050565b6000613734826137e3565b915061373f836137e3565b92508282101561375257613751613923565b5b828203905092915050565b6000613768826137c3565b9050919050565b60008115159050919050565b6000819050919050565b60007fffffffff0000000000000000000000000000000000000000000000000000000082169050919050565b60006137bc8261375d565b9050919050565b600073ffffffffffffffffffffffffffffffffffffffff82169050919050565b6000819050919050565b600060ff82169050919050565b82818337600083830152505050565b60005b8381101561382757808201518184015260208101905061380c565b83811115613836576000848401525b50505050565b6000600282049050600182168061385457607f821691505b6020821081141561386857613867613981565b5b50919050565b613877826139df565b810181811067ffffffffffffffff82111715613896576138956139b0565b5b80604052505050565b60006138aa826137e3565b91507fffffffffffffffffffffffffffffffffffffffffffffffffffffffffffffffff8214156138dd576138dc613923565b5b600182019050919050565b6000819050919050565b60006138fd826137e3565b9150613908836137e3565b92508261391857613917613952565b5b828206905092915050565b7f4e487b7100000000000000000000000000000000000000000000000000000000600052601160045260246000fd5b7f4e487b7100000000000000000000000000000000000000000000000000000000600052601260045260246000fd5b7f4e487b7100000000000000000000000000000000000000000000000000000000600052602260045260246000fd5b7f4e487b7100000000000000000000000000000000000000000000000000000000600052604160045260246000fd5b6000601f19601f8301169050919050565b7f4d696e7465722026205369676e657220617265206e6f742073616d6500000000600082015250565b7f19457468657265756d205369676e6564204d6573736167653a0a333200000000600082015250565b7f4552433732313a207472616e7366657220746f206e6f6e20455243373231526560008201527f63656976657220696d706c656d656e7465720000000000000000000000000000602082015250565b7f4f776e61626c653a206e6577206f776e657220697320746865207a65726f206160008201527f6464726573730000000000000000000000000000000000000000000000000000602082015250565b7f4552433732313a207472616e736665722066726f6d20696e636f72726563742060008201527f6f776e6572000000000000000000000000000000000000000000000000000000602082015250565b7f4552433732313a20746f6b656e20616c7265616479206d696e74656400000000600082015250565b7f4552433732313a207472616e7366657220746f20746865207a65726f2061646460008201527f7265737300000000000000000000000000000000000000000000000000000000602082015250565b7f4552433732313a20617070726f766520746f2063616c6c657200000000000000600082015250565b7f6574680000000000000000000000000000000000000000000000000000000000600082015250565b7f4552433732313a206f70657261746f7220717565727920666f72206e6f6e657860008201527f697374656e7420746f6b656e0000000000000000000000000000000000000000602082015250565b7f4552433732313a20617070726f76652063616c6c6572206973206e6f74206f7760008201527f6e6572206e6f7220617070726f76656420666f7220616c6c0000000000000000602082015250565b7f4552433732313a2062616c616e636520717565727920666f7220746865207a6560008201527f726f206164647265737300000000000000000000000000000000000000000000602082015250565b7f4552433732313a206f776e657220717565727920666f72206e6f6e657869737460008201527f656e7420746f6b656e0000000000000000000000000000000000000000000000602082015250565b7f5369676e6174757265206c656e67746820213d20363500000000000000000000600082015250565b7f45524337323155524953746f726167653a2055524920736574206f66206e6f6e60008201527f6578697374656e7420746f6b656e000000000000000000000000000000000000602082015250565b7f4552433732313a206d696e7420746f20746865207a65726f2061646472657373600082015250565b7f45524337323155524953746f726167653a2055524920717565727920666f722060008201527f6e6f6e6578697374656e7420746f6b656e000000000000000000000000000000602082015250565b7f4d696e7465722026204f776e657220617265206e6f742073616d650000000000600082015250565b7f4552433732313a20617070726f76656420717565727920666f72206e6f6e657860008201527f697374656e7420746f6b656e0000000000000000000000000000000000000000602082015250565b7f4f776e61626c653a2063616c6c6572206973206e6f7420746865206f776e6572600082015250565b7f4552433732314d657461646174613a2055524920717565727920666f72206e6f60008201527f6e6578697374656e7420746f6b656e0000000000000000000000000000000000602082015250565b7f496e73756666696369656e742065746865722073656e74000000000000000000600082015250565b7f4552433732313a20617070726f76616c20746f2063757272656e74206f776e6560008201527f7200000000000000000000000000000000000000000000000000000000000000602082015250565b7f4f776e65722026205369676e657220617265206e6f742073616d650000000000600082015250565b7f4552433732313a207472616e736665722063616c6c6572206973206e6f74206f60008201527f776e6572206e6f7220617070726f766564000000000000000000000000000000602082015250565b61400e8161375d565b811461401957600080fd5b50565b6140258161376f565b811461403057600080fd5b50565b61403c8161377b565b811461404757600080fd5b50565b61405381613785565b811461405e57600080fd5b50565b61406a816137b1565b811461407557600080fd5b50565b614081816137e3565b811461408c57600080fd5b5056fea264697066735822122004d8676a604dcc9c2b11e1d0da39920e30f255a5dbbd099889cb9e354272036064736f6c63430008040033",
  "linkReferences": {},
  "deployedLinkReferences": {}
}