{
  "_format": "hh-sol-artifact-1",
  "contractName": "IndexIt",
  "sourceName": "contracts/IndexIt.sol",
  "abi": [
    {
      "inputs": [],
      "stateMutability": "nonpayable",
      "type": "constructor"
    },
    {
      "anonymous": false,
      "inputs": [
        {
          "indexed": true,
          "internalType": "address",
          "name": "owner",
          "type": "address"
        },
        {
          "indexed": true,
          "internalType": "address",
          "name": "approved",
          "type": "address"
        },
        {
          "indexed": true,
          "internalType": "uint256",
          "name": "tokenId",
          "type": "uint256"
        }
      ],
      "name": "Approval",
      "type": "event"
    },
    {
      "anonymous": false,
      "inputs": [
        {
          "indexed": true,
          "internalType": "address",
          "name": "owner",
          "type": "address"
        },
        {
          "indexed": true,
          "internalType": "address",
          "name": "operator",
          "type": "address"
        },
        {
          "indexed": false,
          "internalType": "bool",
          "name": "approved",
          "type": "bool"
        }
      ],
      "name": "ApprovalForAll",
      "type": "event"
    },
    {
      "anonymous": false,
      "inputs": [
        {
          "indexed": true,
          "internalType": "address",
          "name": "previousOwner",
          "type": "address"
        },
        {
          "indexed": true,
          "internalType": "address",
          "name": "newOwner",
          "type": "address"
        }
      ],
      "name": "OwnershipTransferred",
      "type": "event"
    },
    {
      "anonymous": false,
      "inputs": [
        {
          "indexed": true,
          "internalType": "address",
          "name": "from",
          "type": "address"
        },
        {
          "indexed": true,
          "internalType": "address",
          "name": "to",
          "type": "address"
        },
        {
          "indexed": true,
          "internalType": "uint256",
          "name": "tokenId",
          "type": "uint256"
        }
      ],
      "name": "Transfer",
      "type": "event"
    },
    {
      "inputs": [
        {
          "internalType": "address",
          "name": "to",
          "type": "address"
        },
        {
          "internalType": "uint256",
          "name": "tokenId",
          "type": "uint256"
        }
      ],
      "name": "approve",
      "outputs": [],
      "stateMutability": "nonpayable",
      "type": "function"
    },
    {
      "inputs": [
        {
          "internalType": "address",
          "name": "owner",
          "type": "address"
        }
      ],
      "name": "balanceOf",
      "outputs": [
        {
          "internalType": "uint256",
          "name": "",
          "type": "uint256"
        }
      ],
      "stateMutability": "view",
      "type": "function"
    },
    {
      "inputs": [
        {
          "internalType": "uint256",
          "name": "tokenId",
          "type": "uint256"
        }
      ],
      "name": "getApproved",
      "outputs": [
        {
          "internalType": "address",
          "name": "",
          "type": "address"
        }
      ],
      "stateMutability": "view",
      "type": "function"
    },
    {
      "inputs": [
        {
          "internalType": "address",
          "name": "owner",
          "type": "address"
        },
        {
          "internalType": "address",
          "name": "operator",
          "type": "address"
        }
      ],
      "name": "isApprovedForAll",
      "outputs": [
        {
          "internalType": "bool",
          "name": "",
          "type": "bool"
        }
      ],
      "stateMutability": "view",
      "type": "function"
    },
    {
      "inputs": [
        {
          "internalType": "bytes32",
          "name": "hash",
          "type": "bytes32"
        },
        {
          "internalType": "string",
          "name": "message",
          "type": "string"
        },
        {
          "internalType": "bytes",
          "name": "signature",
          "type": "bytes"
        },
        {
          "internalType": "string",
          "name": "uri",
          "type": "string"
        },
        {
          "internalType": "string",
          "name": "name",
          "type": "string"
        }
      ],
      "name": "mintToken",
      "outputs": [],
      "stateMutability": "payable",
      "type": "function"
    },
    {
      "inputs": [],
      "name": "name",
      "outputs": [
        {
          "internalType": "string",
          "name": "",
          "type": "string"
        }
      ],
      "stateMutability": "view",
      "type": "function"
    },
    {
      "inputs": [],
      "name": "owner",
      "outputs": [
        {
          "internalType": "address",
          "name": "",
          "type": "address"
        }
      ],
      "stateMutability": "view",
      "type": "function"
    },
    {
      "inputs": [
        {
          "internalType": "uint256",
          "name": "tokenId",
          "type": "uint256"
        }
      ],
      "name": "ownerOf",
      "outputs": [
        {
          "internalType": "address",
          "name": "",
          "type": "address"
        }
      ],
      "stateMutability": "view",
      "type": "function"
    },
    {
      "inputs": [
        {
          "internalType": "string",
          "name": "name",
          "type": "string"
        }
      ],
      "name": "price",
      "outputs": [
        {
          "internalType": "uint256",
          "name": "",
          "type": "uint256"
        }
      ],
      "stateMutability": "pure",
      "type": "function"
    },
    {
      "inputs": [],
      "name": "price0x100kClub",
      "outputs": [
        {
          "internalType": "uint256",
          "name": "",
          "type": "uint256"
        }
      ],
      "stateMutability": "view",
      "type": "function"
    },
    {
      "inputs": [],
      "name": "price10kClub",
      "outputs": [
        {
          "internalType": "uint256",
          "name": "",
          "type": "uint256"
        }
      ],
      "stateMutability": "view",
      "type": "function"
    },
    {
      "inputs": [],
      "name": "price999Club",
      "outputs": [
        {
          "internalType": "uint256",
          "name": "",
          "type": "uint256"
        }
      ],
      "stateMutability": "view",
      "type": "function"
    },
    {
      "inputs": [],
      "name": "priceIdiotClub",
      "outputs": [
        {
          "internalType": "uint256",
          "name": "",
          "type": "uint256"
        }
      ],
      "stateMutability": "view",
      "type": "function"
    },
    {
      "inputs": [],
      "name": "renounceOwnership",
      "outputs": [],
      "stateMutability": "nonpayable",
      "type": "function"
    },
    {
      "inputs": [
        {
          "internalType": "address",
          "name": "from",
          "type": "address"
        },
        {
          "internalType": "address",
          "name": "to",
          "type": "address"
        },
        {
          "internalType": "uint256",
          "name": "tokenId",
          "type": "uint256"
        }
      ],
      "name": "safeTransferFrom",
      "outputs": [],
      "stateMutability": "nonpayable",
      "type": "function"
    },
    {
      "inputs": [
        {
          "internalType": "address",
          "name": "from",
          "type": "address"
        },
        {
          "internalType": "address",
          "name": "to",
          "type": "address"
        },
        {
          "internalType": "uint256",
          "name": "tokenId",
          "type": "uint256"
        },
        {
          "internalType": "bytes",
          "name": "_data",
          "type": "bytes"
        }
      ],
      "name": "safeTransferFrom",
      "outputs": [],
      "stateMutability": "nonpayable",
      "type": "function"
    },
    {
      "inputs": [
        {
          "internalType": "address",
          "name": "operator",
          "type": "address"
        },
        {
          "internalType": "bool",
          "name": "approved",
          "type": "bool"
        }
      ],
      "name": "setApprovalForAll",
      "outputs": [],
      "stateMutability": "nonpayable",
      "type": "function"
    },
    {
      "inputs": [
        {
          "internalType": "bytes4",
          "name": "interfaceId",
          "type": "bytes4"
        }
      ],
      "name": "supportsInterface",
      "outputs": [
        {
          "internalType": "bool",
          "name": "",
          "type": "bool"
        }
      ],
      "stateMutability": "view",
      "type": "function"
    },
    {
      "inputs": [],
      "name": "symbol",
      "outputs": [
        {
          "internalType": "string",
          "name": "",
          "type": "string"
        }
      ],
      "stateMutability": "view",
      "type": "function"
    },
    {
      "inputs": [
        {
          "internalType": "uint256",
          "name": "tokenId",
          "type": "uint256"
        }
      ],
      "name": "tokenURI",
      "outputs": [
        {
          "internalType": "string",
          "name": "",
          "type": "string"
        }
      ],
      "stateMutability": "view",
      "type": "function"
    },
    {
      "inputs": [
        {
          "internalType": "address",
          "name": "from",
          "type": "address"
        },
        {
          "internalType": "address",
          "name": "to",
          "type": "address"
        },
        {
          "internalType": "uint256",
          "name": "tokenId",
          "type": "uint256"
        }
      ],
      "name": "transferFrom",
      "outputs": [],
      "stateMutability": "nonpayable",
      "type": "function"
    },
    {
      "inputs": [
        {
          "internalType": "address",
          "name": "newOwner",
          "type": "address"
        }
      ],
      "name": "transferOwnership",
      "outputs": [],
      "stateMutability": "nonpayable",
      "type": "function"
    }
  ],
  "bytecode": "0x60806040523480156200001157600080fd5b506040518060400160405280600a81526020017f44696769744361726473000000000000000000000000000000000000000000008152506040518060400160405280600481526020017f4449474900000000000000000000000000000000000000000000000000000000815250816000908051906020019062000096929190620001a6565b508060019080519060200190620000af929190620001a6565b505050620000d2620000c6620000d860201b60201c565b620000e060201b60201c565b620002bb565b600033905090565b6000600760009054906101000a900473ffffffffffffffffffffffffffffffffffffffff16905081600760006101000a81548173ffffffffffffffffffffffffffffffffffffffff021916908373ffffffffffffffffffffffffffffffffffffffff1602179055508173ffffffffffffffffffffffffffffffffffffffff168173ffffffffffffffffffffffffffffffffffffffff167f8be0079c531659141344cd1fd0a4f28419497f9722a3daafe3b4186f6b6457e060405160405180910390a35050565b828054620001b49062000256565b90600052602060002090601f016020900481019282620001d8576000855562000224565b82601f10620001f357805160ff191683800117855562000224565b8280016001018555821562000224579182015b828111156200022357825182559160200191906001019062000206565b5b50905062000233919062000237565b5090565b5b808211156200025257600081600090555060010162000238565b5090565b600060028204905060018216806200026f57607f821691505b602082108114156200028657620002856200028c565b5b50919050565b7f4e487b7100000000000000000000000000000000000000000000000000000000600052602260045260246000fd5b613a4780620002cb6000396000f3fe6080604052600436106101355760003560e01c806370a08231116100ab578063b88d4fde1161006f578063b88d4fde14610416578063c87b56dd1461043f578063cfd5f2ec1461047c578063e985e9c514610498578063f2fde38b146104d5578063fe2c6198146104fe57610135565b806370a0823114610343578063715018a6146103805780638da5cb5b1461039757806395d89b41146103c2578063a22cb465146103ed57610135565b806323b872dd116100fd57806323b872dd146102335780632a0a205f1461025c5780632e1fb8741461028757806342842e0e146102b25780635973829a146102db5780636352211e1461030657610135565b806301ffc9a71461013a578063052b1bbd1461017757806306fdde03146101a2578063081812fc146101cd578063095ea7b31461020a575b600080fd5b34801561014657600080fd5b50610161600480360381019061015c91906126d2565b61053b565b60405161016e9190612c91565b60405180910390f35b34801561018357600080fd5b5061018c61061d565b6040516101999190612fe3565b60405180910390f35b3480156101ae57600080fd5b506101b7610622565b6040516101c49190612d21565b60405180910390f35b3480156101d957600080fd5b506101f460048036038101906101ef9190612765565b6106b4565b6040516102019190612c2a565b60405180910390f35b34801561021657600080fd5b50610231600480360381019061022c91906125bf565b610739565b005b34801561023f57600080fd5b5061025a600480360381019061025591906124b9565b610851565b005b34801561026857600080fd5b506102716108b1565b60405161027e9190612fe3565b60405180910390f35b34801561029357600080fd5b5061029c6108b6565b6040516102a99190612fe3565b60405180910390f35b3480156102be57600080fd5b506102d960048036038101906102d491906124b9565b6108bb565b005b3480156102e757600080fd5b506102f06108db565b6040516102fd9190612fe3565b60405180910390f35b34801561031257600080fd5b5061032d60048036038101906103289190612765565b6108e0565b60405161033a9190612c2a565b60405180910390f35b34801561034f57600080fd5b5061036a60048036038101906103659190612454565b610992565b6040516103779190612fe3565b60405180910390f35b34801561038c57600080fd5b50610395610a4a565b005b3480156103a357600080fd5b506103ac610ad2565b6040516103b99190612c2a565b60405180910390f35b3480156103ce57600080fd5b506103d7610afc565b6040516103e49190612d21565b60405180910390f35b3480156103f957600080fd5b50610414600480360381019061040f9190612583565b610b8e565b005b34801561042257600080fd5b5061043d60048036038101906104389190612508565b610ba4565b005b34801561044b57600080fd5b5061046660048036038101906104619190612765565b610c06565b6040516104739190612d21565b60405180910390f35b610496600480360381019061049191906125fb565b610d58565b005b3480156104a457600080fd5b506104bf60048036038101906104ba919061247d565b610f47565b6040516104cc9190612c91565b60405180910390f35b3480156104e157600080fd5b506104fc60048036038101906104f79190612454565b610fdb565b005b34801561050a57600080fd5b5061052560048036038101906105209190612724565b6110d3565b6040516105329190612fe3565b60405180910390f35b60007f80ac58cd000000000000000000000000000000000000000000000000000000007bffffffffffffffffffffffffffffffffffffffffffffffffffffffff1916827bffffffffffffffffffffffffffffffffffffffffffffffffffffffff1916148061060657507f5b5e139f000000000000000000000000000000000000000000000000000000007bffffffffffffffffffffffffffffffffffffffffffffffffffffffff1916827bffffffffffffffffffffffffffffffffffffffffffffffffffffffff1916145b80610616575061061582611129565b5b9050919050565b600081565b60606000805461063190613250565b80601f016020809104026020016040519081016040528092919081815260200182805461065d90613250565b80156106aa5780601f1061067f576101008083540402835291602001916106aa565b820191906000526020600020905b81548152906001019060200180831161068d57829003601f168201915b5050505050905090565b60006106bf82611193565b6106fe576040517f08c379a00000000000000000000000000000000000000000000000000000000081526004016106f590612f23565b60405180910390fd5b6004600083815260200190815260200160002060009054906101000a900473ffffffffffffffffffffffffffffffffffffffff169050919050565b6000610744826108e0565b90508073ffffffffffffffffffffffffffffffffffffffff168373ffffffffffffffffffffffffffffffffffffffff1614156107b5576040517f08c379a00000000000000000000000000000000000000000000000000000000081526004016107ac90612fa3565b60405180910390fd5b8073ffffffffffffffffffffffffffffffffffffffff166107d46111ff565b73ffffffffffffffffffffffffffffffffffffffff1614806108035750610802816107fd6111ff565b610f47565b5b610842576040517f08c379a000000000000000000000000000000000000000000000000000000000815260040161083990612e43565b60405180910390fd5b61084c8383611207565b505050565b61086261085c6111ff565b826112c0565b6108a1576040517f08c379a000000000000000000000000000000000000000000000000000000000815260040161089890612fc3565b60405180910390fd5b6108ac83838361139e565b505050565b600081565b600081565b6108d683838360405180602001604052806000815250610ba4565b505050565b600081565b6000806002600084815260200190815260200160002060009054906101000a900473ffffffffffffffffffffffffffffffffffffffff169050600073ffffffffffffffffffffffffffffffffffffffff168173ffffffffffffffffffffffffffffffffffffffff161415610989576040517f08c379a000000000000000000000000000000000000000000000000000000000815260040161098090612e83565b60405180910390fd5b80915050919050565b60008073ffffffffffffffffffffffffffffffffffffffff168273ffffffffffffffffffffffffffffffffffffffff161415610a03576040517f08c379a00000000000000000000000000000000000000000000000000000000081526004016109fa90612e63565b60405180910390fd5b600360008373ffffffffffffffffffffffffffffffffffffffff1673ffffffffffffffffffffffffffffffffffffffff168152602001908152602001600020549050919050565b610a526111ff565b73ffffffffffffffffffffffffffffffffffffffff16610a70610ad2565b73ffffffffffffffffffffffffffffffffffffffff1614610ac6576040517f08c379a0000000000000000000000000000000000000000000000000000000008152600401610abd90612f43565b60405180910390fd5b610ad06000611605565b565b6000600760009054906101000a900473ffffffffffffffffffffffffffffffffffffffff16905090565b606060018054610b0b90613250565b80601f0160208091040260200160405190810160405280929190818152602001828054610b3790613250565b8015610b845780601f10610b5957610100808354040283529160200191610b84565b820191906000526020600020905b815481529060010190602001808311610b6757829003601f168201915b5050505050905090565b610ba0610b996111ff565b83836116cb565b5050565b610bb5610baf6111ff565b836112c0565b610bf4576040517f08c379a0000000000000000000000000000000000000000000000000000000008152600401610beb90612fc3565b60405180910390fd5b610c0084848484611838565b50505050565b6060610c1182611193565b610c50576040517f08c379a0000000000000000000000000000000000000000000000000000000008152600401610c4790612f03565b60405180910390fd5b6000600660008481526020019081526020016000208054610c7090613250565b80601f0160208091040260200160405190810160405280929190818152602001828054610c9c90613250565b8015610ce95780601f10610cbe57610100808354040283529160200191610ce9565b820191906000526020600020905b815481529060010190602001808311610ccc57829003601f168201915b505050505090506000610cfa611894565b9050600081511415610d10578192505050610d53565b600082511115610d45578082604051602001610d2d929190612b95565b60405160208183030381529060405292505050610d53565b610d4e846118ab565b925050505b919050565b60008585604051602001610d6d929190612cac565b6040516020818303038152906040528051906020012090506000610d9082611952565b90506000610d9e8287611982565b90508073ffffffffffffffffffffffffffffffffffffffff163373ffffffffffffffffffffffffffffffffffffffff1614610e0e576040517f08c379a0000000000000000000000000000000000000000000000000000000008152600401610e0590612dc3565b60405180910390fd5b6000610e1a60086119f7565b90506000610e27866110d3565b905080341015610e6c576040517f08c379a0000000000000000000000000000000000000000000000000000000008152600401610e6390612f83565b60405180910390fd5b6000610f1a6040518060400160405280601c81526020017f68747470733a2f2f696e64657869742e636c75622f7075626c69632f00000000815250896040518060400160405280600181526020017f2f000000000000000000000000000000000000000000000000000000000000008152508b6040518060400160405280600581526020017f2e6a736f6e000000000000000000000000000000000000000000000000000000815250611a05565b9050610f263384611a3a565b610f308382611c14565b610f3a6008611c88565b5050505050505050505050565b6000600560008473ffffffffffffffffffffffffffffffffffffffff1673ffffffffffffffffffffffffffffffffffffffff16815260200190815260200160002060008373ffffffffffffffffffffffffffffffffffffffff1673ffffffffffffffffffffffffffffffffffffffff16815260200190815260200160002060009054906101000a900460ff16905092915050565b610fe36111ff565b73ffffffffffffffffffffffffffffffffffffffff16611001610ad2565b73ffffffffffffffffffffffffffffffffffffffff1614611057576040517f08c379a000000000000000000000000000000000000000000000000000000000815260040161104e90612f43565b60405180910390fd5b600073ffffffffffffffffffffffffffffffffffffffff168173ffffffffffffffffffffffffffffffffffffffff1614156110c7576040517f08c379a00000000000000000000000000000000000000000000000000000000081526004016110be90612d63565b60405180910390fd5b6110d081611605565b50565b6000806110df83611c9e565b9050600060038214156110f5576000905061111f565b6004821415611107576000905061111e565b60058210611118576000905061111d565b600090505b5b5b8092505050919050565b60007f01ffc9a7000000000000000000000000000000000000000000000000000000007bffffffffffffffffffffffffffffffffffffffffffffffffffffffff1916827bffffffffffffffffffffffffffffffffffffffffffffffffffffffff1916149050919050565b60008073ffffffffffffffffffffffffffffffffffffffff166002600084815260200190815260200160002060009054906101000a900473ffffffffffffffffffffffffffffffffffffffff1673ffffffffffffffffffffffffffffffffffffffff1614159050919050565b600033905090565b816004600083815260200190815260200160002060006101000a81548173ffffffffffffffffffffffffffffffffffffffff021916908373ffffffffffffffffffffffffffffffffffffffff160217905550808273ffffffffffffffffffffffffffffffffffffffff1661127a836108e0565b73ffffffffffffffffffffffffffffffffffffffff167f8c5be1e5ebec7d5bd14f71427d1e84f3dd0314c0f7b2291e5b200ac8c7c3b92560405160405180910390a45050565b60006112cb82611193565b61130a576040517f08c379a000000000000000000000000000000000000000000000000000000000815260040161130190612e23565b60405180910390fd5b6000611315836108e0565b90508073ffffffffffffffffffffffffffffffffffffffff168473ffffffffffffffffffffffffffffffffffffffff16148061135757506113568185610f47565b5b8061139557508373ffffffffffffffffffffffffffffffffffffffff1661137d846106b4565b73ffffffffffffffffffffffffffffffffffffffff16145b91505092915050565b8273ffffffffffffffffffffffffffffffffffffffff166113be826108e0565b73ffffffffffffffffffffffffffffffffffffffff1614611414576040517f08c379a000000000000000000000000000000000000000000000000000000000815260040161140b90612d83565b60405180910390fd5b600073ffffffffffffffffffffffffffffffffffffffff168273ffffffffffffffffffffffffffffffffffffffff161415611484576040517f08c379a000000000000000000000000000000000000000000000000000000000815260040161147b90612de3565b60405180910390fd5b61148f838383611e79565b61149a600082611207565b6001600360008573ffffffffffffffffffffffffffffffffffffffff1673ffffffffffffffffffffffffffffffffffffffff16815260200190815260200160002060008282546114ea919061314f565b925050819055506001600360008473ffffffffffffffffffffffffffffffffffffffff1673ffffffffffffffffffffffffffffffffffffffff168152602001908152602001600020600082825461154191906130c8565b92505081905550816002600083815260200190815260200160002060006101000a81548173ffffffffffffffffffffffffffffffffffffffff021916908373ffffffffffffffffffffffffffffffffffffffff160217905550808273ffffffffffffffffffffffffffffffffffffffff168473ffffffffffffffffffffffffffffffffffffffff167fddf252ad1be2c89b69c2b068fc378daa952ba7f163c4a11628f55a4df523b3ef60405160405180910390a4611600838383611e7e565b505050565b6000600760009054906101000a900473ffffffffffffffffffffffffffffffffffffffff16905081600760006101000a81548173ffffffffffffffffffffffffffffffffffffffff021916908373ffffffffffffffffffffffffffffffffffffffff1602179055508173ffffffffffffffffffffffffffffffffffffffff168173ffffffffffffffffffffffffffffffffffffffff167f8be0079c531659141344cd1fd0a4f28419497f9722a3daafe3b4186f6b6457e060405160405180910390a35050565b8173ffffffffffffffffffffffffffffffffffffffff168373ffffffffffffffffffffffffffffffffffffffff16141561173a576040517f08c379a000000000000000000000000000000000000000000000000000000000815260040161173190612e03565b60405180910390fd5b80600560008573ffffffffffffffffffffffffffffffffffffffff1673ffffffffffffffffffffffffffffffffffffffff16815260200190815260200160002060008473ffffffffffffffffffffffffffffffffffffffff1673ffffffffffffffffffffffffffffffffffffffff16815260200190815260200160002060006101000a81548160ff0219169083151502179055508173ffffffffffffffffffffffffffffffffffffffff168373ffffffffffffffffffffffffffffffffffffffff167f17307eab39ab6107e8899845ad3d59bd9653f200f220920489ca2b5937696c318360405161182b9190612c91565b60405180910390a3505050565b61184384848461139e565b61184f84848484611e83565b61188e576040517f08c379a000000000000000000000000000000000000000000000000000000000815260040161188590612d43565b60405180910390fd5b50505050565b606060405180602001604052806000815250905090565b60606118b682611193565b6118f5576040517f08c379a00000000000000000000000000000000000000000000000000000000081526004016118ec90612f63565b60405180910390fd5b60006118ff611894565b9050600081511161191f576040518060200160405280600081525061194a565b806119298461201a565b60405160200161193a929190612b95565b6040516020818303038152906040525b915050919050565b6000816040516020016119659190612c04565b604051602081830303815290604052805190602001209050919050565b600080600080611991856121c7565b809350819450829550505050600186848484604051600081526020016040526040516119c09493929190612cdc565b6020604051602081039080840390855afa1580156119e2573d6000803e3d6000fd5b50505060206040510351935050505092915050565b600081600001549050919050565b60608585858585604051602001611a20959493929190612bb9565b604051602081830303815290604052905095945050505050565b600073ffffffffffffffffffffffffffffffffffffffff168273ffffffffffffffffffffffffffffffffffffffff161415611aaa576040517f08c379a0000000000000000000000000000000000000000000000000000000008152600401611aa190612ee3565b60405180910390fd5b611ab381611193565b15611af3576040517f08c379a0000000000000000000000000000000000000000000000000000000008152600401611aea90612da3565b60405180910390fd5b611aff60008383611e79565b6001600360008473ffffffffffffffffffffffffffffffffffffffff1673ffffffffffffffffffffffffffffffffffffffff1681526020019081526020016000206000828254611b4f91906130c8565b92505081905550816002600083815260200190815260200160002060006101000a81548173ffffffffffffffffffffffffffffffffffffffff021916908373ffffffffffffffffffffffffffffffffffffffff160217905550808273ffffffffffffffffffffffffffffffffffffffff16600073ffffffffffffffffffffffffffffffffffffffff167fddf252ad1be2c89b69c2b068fc378daa952ba7f163c4a11628f55a4df523b3ef60405160405180910390a4611c1060008383611e7e565b5050565b611c1d82611193565b611c5c576040517f08c379a0000000000000000000000000000000000000000000000000000000008152600401611c5390612ec3565b60405180910390fd5b80600660008481526020019081526020016000209080519060200190611c83929190612263565b505050565b6001816000016000828254019250508190555050565b60008060008084519050600092505b80821015611e6e576000858381518110611cf0577f4e487b7100000000000000000000000000000000000000000000000000000000600052603260045260246000fd5b602001015160f81c60f81b9050608060f81b817effffffffffffffffffffffffffffffffffffffffffffffffffffffffffffff19161015611d3f57600183611d3891906130c8565b9250611e5a565b60e060f81b817effffffffffffffffffffffffffffffffffffffffffffffffffffffffffffff19161015611d8157600283611d7a91906130c8565b9250611e59565b60f060f81b817effffffffffffffffffffffffffffffffffffffffffffffffffffffffffffff19161015611dc357600383611dbc91906130c8565b9250611e58565b60f8801b817effffffffffffffffffffffffffffffffffffffffffffffffffffffffffffff19161015611e0457600483611dfd91906130c8565b9250611e57565b60fc60f81b817effffffffffffffffffffffffffffffffffffffffffffffffffffffffffffff19161015611e4657600583611e3f91906130c8565b9250611e56565b600683611e5391906130c8565b92505b5b5b5b5b508280611e66906132b3565b935050611cad565b829350505050919050565b505050565b505050565b6000611ea48473ffffffffffffffffffffffffffffffffffffffff16612240565b1561200d578373ffffffffffffffffffffffffffffffffffffffff1663150b7a02611ecd6111ff565b8786866040518563ffffffff1660e01b8152600401611eef9493929190612c45565b602060405180830381600087803b158015611f0957600080fd5b505af1925050508015611f3a57506040513d601f19601f82011682018060405250810190611f3791906126fb565b60015b611fbd573d8060008114611f6a576040519150601f19603f3d011682016040523d82523d6000602084013e611f6f565b606091505b50600081511415611fb5576040517f08c379a0000000000000000000000000000000000000000000000000000000008152600401611fac90612d43565b60405180910390fd5b805181602001fd5b63150b7a0260e01b7bffffffffffffffffffffffffffffffffffffffffffffffffffffffff1916817bffffffffffffffffffffffffffffffffffffffffffffffffffffffff191614915050612012565b600190505b949350505050565b60606000821415612062576040518060400160405280600181526020017f300000000000000000000000000000000000000000000000000000000000000081525090506121c2565b600082905060005b6000821461209457808061207d906132b3565b915050600a8261208d919061311e565b915061206a565b60008167ffffffffffffffff8111156120d6577f4e487b7100000000000000000000000000000000000000000000000000000000600052604160045260246000fd5b6040519080825280601f01601f1916602001820160405280156121085781602001600182028036833780820191505090505b5090505b600085146121bb57600182612121919061314f565b9150600a856121309190613306565b603061213c91906130c8565b60f81b818381518110612178577f4e487b7100000000000000000000000000000000000000000000000000000000600052603260045260246000fd5b60200101907effffffffffffffffffffffffffffffffffffffffffffffffffffffffffffff1916908160001a905350600a856121b4919061311e565b945061210c565b8093505050505b919050565b60008060006041845114612210576040517f08c379a000000000000000000000000000000000000000000000000000000000815260040161220790612ea3565b60405180910390fd5b60008060006020870151925060408701519150606087015160001a90508083839550955095505050509193909250565b6000808273ffffffffffffffffffffffffffffffffffffffff163b119050919050565b82805461226f90613250565b90600052602060002090601f01602090048101928261229157600085556122d8565b82601f106122aa57805160ff19168380011785556122d8565b828001600101855582156122d8579182015b828111156122d75782518255916020019190600101906122bc565b5b5090506122e591906122e9565b5090565b5b808211156123025760008160009055506001016122ea565b5090565b600061231961231484613023565b612ffe565b90508281526020810184848401111561233157600080fd5b61233c84828561320e565b509392505050565b600061235761235284613054565b612ffe565b90508281526020810184848401111561236f57600080fd5b61237a84828561320e565b509392505050565b6000813590506123918161399e565b92915050565b6000813590506123a6816139b5565b92915050565b6000813590506123bb816139cc565b92915050565b6000813590506123d0816139e3565b92915050565b6000815190506123e5816139e3565b92915050565b600082601f8301126123fc57600080fd5b813561240c848260208601612306565b91505092915050565b600082601f83011261242657600080fd5b8135612436848260208601612344565b91505092915050565b60008135905061244e816139fa565b92915050565b60006020828403121561246657600080fd5b600061247484828501612382565b91505092915050565b6000806040838503121561249057600080fd5b600061249e85828601612382565b92505060206124af85828601612382565b9150509250929050565b6000806000606084860312156124ce57600080fd5b60006124dc86828701612382565b93505060206124ed86828701612382565b92505060406124fe8682870161243f565b9150509250925092565b6000806000806080858703121561251e57600080fd5b600061252c87828801612382565b945050602061253d87828801612382565b935050604061254e8782880161243f565b925050606085013567ffffffffffffffff81111561256b57600080fd5b612577878288016123eb565b91505092959194509250565b6000806040838503121561259657600080fd5b60006125a485828601612382565b92505060206125b585828601612397565b9150509250929050565b600080604083850312156125d257600080fd5b60006125e085828601612382565b92505060206125f18582860161243f565b9150509250929050565b600080600080600060a0868803121561261357600080fd5b6000612621888289016123ac565b955050602086013567ffffffffffffffff81111561263e57600080fd5b61264a88828901612415565b945050604086013567ffffffffffffffff81111561266757600080fd5b612673888289016123eb565b935050606086013567ffffffffffffffff81111561269057600080fd5b61269c88828901612415565b925050608086013567ffffffffffffffff8111156126b957600080fd5b6126c588828901612415565b9150509295509295909350565b6000602082840312156126e457600080fd5b60006126f2848285016123c1565b91505092915050565b60006020828403121561270d57600080fd5b600061271b848285016123d6565b91505092915050565b60006020828403121561273657600080fd5b600082013567ffffffffffffffff81111561275057600080fd5b61275c84828501612415565b91505092915050565b60006020828403121561277757600080fd5b60006127858482850161243f565b91505092915050565b61279781613183565b82525050565b6127a681613195565b82525050565b6127b5816131a1565b82525050565b6127cc6127c7826131a1565b6132fc565b82525050565b60006127dd82613085565b6127e7818561309b565b93506127f781856020860161321d565b612800816133f3565b840191505092915050565b600061281682613090565b61282081856130ac565b935061283081856020860161321d565b612839816133f3565b840191505092915050565b600061284f82613090565b61285981856130bd565b935061286981856020860161321d565b80840191505092915050565b6000612882601c836130bd565b915061288d82613404565b601c82019050919050565b60006128a56032836130ac565b91506128b08261342d565b604082019050919050565b60006128c86026836130ac565b91506128d38261347c565b604082019050919050565b60006128eb6025836130ac565b91506128f6826134cb565b604082019050919050565b600061290e601c836130ac565b91506129198261351a565b602082019050919050565b6000612931601c836130ac565b915061293c82613543565b602082019050919050565b60006129546024836130ac565b915061295f8261356c565b604082019050919050565b60006129776019836130ac565b9150612982826135bb565b602082019050919050565b600061299a602c836130ac565b91506129a5826135e4565b604082019050919050565b60006129bd6038836130ac565b91506129c882613633565b604082019050919050565b60006129e0602a836130ac565b91506129eb82613682565b604082019050919050565b6000612a036029836130ac565b9150612a0e826136d1565b604082019050919050565b6000612a266016836130ac565b9150612a3182613720565b602082019050919050565b6000612a49602e836130ac565b9150612a5482613749565b604082019050919050565b6000612a6c6020836130ac565b9150612a7782613798565b602082019050919050565b6000612a8f6031836130ac565b9150612a9a826137c1565b604082019050919050565b6000612ab2602c836130ac565b9150612abd82613810565b604082019050919050565b6000612ad56020836130ac565b9150612ae08261385f565b602082019050919050565b6000612af8602f836130ac565b9150612b0382613888565b604082019050919050565b6000612b1b6017836130ac565b9150612b26826138d7565b602082019050919050565b6000612b3e6021836130ac565b9150612b4982613900565b604082019050919050565b6000612b616031836130ac565b9150612b6c8261394f565b604082019050919050565b612b80816131f7565b82525050565b612b8f81613201565b82525050565b6000612ba18285612844565b9150612bad8284612844565b91508190509392505050565b6000612bc58288612844565b9150612bd18287612844565b9150612bdd8286612844565b9150612be98285612844565b9150612bf58284612844565b91508190509695505050505050565b6000612c0f82612875565b9150612c1b82846127bb565b60208201915081905092915050565b6000602082019050612c3f600083018461278e565b92915050565b6000608082019050612c5a600083018761278e565b612c67602083018661278e565b612c746040830185612b77565b8181036060830152612c8681846127d2565b905095945050505050565b6000602082019050612ca6600083018461279d565b92915050565b6000604082019050612cc160008301856127ac565b8181036020830152612cd3818461280b565b90509392505050565b6000608082019050612cf160008301876127ac565b612cfe6020830186612b86565b612d0b60408301856127ac565b612d1860608301846127ac565b95945050505050565b60006020820190508181036000830152612d3b818461280b565b905092915050565b60006020820190508181036000830152612d5c81612898565b9050919050565b60006020820190508181036000830152612d7c816128bb565b9050919050565b60006020820190508181036000830152612d9c816128de565b9050919050565b60006020820190508181036000830152612dbc81612901565b9050919050565b60006020820190508181036000830152612ddc81612924565b9050919050565b60006020820190508181036000830152612dfc81612947565b9050919050565b60006020820190508181036000830152612e1c8161296a565b9050919050565b60006020820190508181036000830152612e3c8161298d565b9050919050565b60006020820190508181036000830152612e5c816129b0565b9050919050565b60006020820190508181036000830152612e7c816129d3565b9050919050565b60006020820190508181036000830152612e9c816129f6565b9050919050565b60006020820190508181036000830152612ebc81612a19565b9050919050565b60006020820190508181036000830152612edc81612a3c565b9050919050565b60006020820190508181036000830152612efc81612a5f565b9050919050565b60006020820190508181036000830152612f1c81612a82565b9050919050565b60006020820190508181036000830152612f3c81612aa5565b9050919050565b60006020820190508181036000830152612f5c81612ac8565b9050919050565b60006020820190508181036000830152612f7c81612aeb565b9050919050565b60006020820190508181036000830152612f9c81612b0e565b9050919050565b60006020820190508181036000830152612fbc81612b31565b9050919050565b60006020820190508181036000830152612fdc81612b54565b9050919050565b6000602082019050612ff86000830184612b77565b92915050565b6000613008613019565b90506130148282613282565b919050565b6000604051905090565b600067ffffffffffffffff82111561303e5761303d6133c4565b5b613047826133f3565b9050602081019050919050565b600067ffffffffffffffff82111561306f5761306e6133c4565b5b613078826133f3565b9050602081019050919050565b600081519050919050565b600081519050919050565b600082825260208201905092915050565b600082825260208201905092915050565b600081905092915050565b60006130d3826131f7565b91506130de836131f7565b9250827fffffffffffffffffffffffffffffffffffffffffffffffffffffffffffffffff0382111561311357613112613337565b5b828201905092915050565b6000613129826131f7565b9150613134836131f7565b92508261314457613143613366565b5b828204905092915050565b600061315a826131f7565b9150613165836131f7565b92508282101561317857613177613337565b5b828203905092915050565b600061318e826131d7565b9050919050565b60008115159050919050565b6000819050919050565b60007fffffffff0000000000000000000000000000000000000000000000000000000082169050919050565b600073ffffffffffffffffffffffffffffffffffffffff82169050919050565b6000819050919050565b600060ff82169050919050565b82818337600083830152505050565b60005b8381101561323b578082015181840152602081019050613220565b8381111561324a576000848401525b50505050565b6000600282049050600182168061326857607f821691505b6020821081141561327c5761327b613395565b5b50919050565b61328b826133f3565b810181811067ffffffffffffffff821117156132aa576132a96133c4565b5b80604052505050565b60006132be826131f7565b91507fffffffffffffffffffffffffffffffffffffffffffffffffffffffffffffffff8214156132f1576132f0613337565b5b600182019050919050565b6000819050919050565b6000613311826131f7565b915061331c836131f7565b92508261332c5761332b613366565b5b828206905092915050565b7f4e487b7100000000000000000000000000000000000000000000000000000000600052601160045260246000fd5b7f4e487b7100000000000000000000000000000000000000000000000000000000600052601260045260246000fd5b7f4e487b7100000000000000000000000000000000000000000000000000000000600052602260045260246000fd5b7f4e487b7100000000000000000000000000000000000000000000000000000000600052604160045260246000fd5b6000601f19601f8301169050919050565b7f19457468657265756d205369676e6564204d6573736167653a0a333200000000600082015250565b7f4552433732313a207472616e7366657220746f206e6f6e20455243373231526560008201527f63656976657220696d706c656d656e7465720000000000000000000000000000602082015250565b7f4f776e61626c653a206e6577206f776e657220697320746865207a65726f206160008201527f6464726573730000000000000000000000000000000000000000000000000000602082015250565b7f4552433732313a207472616e736665722066726f6d20696e636f72726563742060008201527f6f776e6572000000000000000000000000000000000000000000000000000000602082015250565b7f4552433732313a20746f6b656e20616c7265616479206d696e74656400000000600082015250565b7f5369676e657220646f6573206e6f74206d61746368206d696e74657200000000600082015250565b7f4552433732313a207472616e7366657220746f20746865207a65726f2061646460008201527f7265737300000000000000000000000000000000000000000000000000000000602082015250565b7f4552433732313a20617070726f766520746f2063616c6c657200000000000000600082015250565b7f4552433732313a206f70657261746f7220717565727920666f72206e6f6e657860008201527f697374656e7420746f6b656e0000000000000000000000000000000000000000602082015250565b7f4552433732313a20617070726f76652063616c6c6572206973206e6f74206f7760008201527f6e6572206e6f7220617070726f76656420666f7220616c6c0000000000000000602082015250565b7f4552433732313a2062616c616e636520717565727920666f7220746865207a6560008201527f726f206164647265737300000000000000000000000000000000000000000000602082015250565b7f4552433732313a206f776e657220717565727920666f72206e6f6e657869737460008201527f656e7420746f6b656e0000000000000000000000000000000000000000000000602082015250565b7f5369676e6174757265206c656e67746820213d20363500000000000000000000600082015250565b7f45524337323155524953746f726167653a2055524920736574206f66206e6f6e60008201527f6578697374656e7420746f6b656e000000000000000000000000000000000000602082015250565b7f4552433732313a206d696e7420746f20746865207a65726f2061646472657373600082015250565b7f45524337323155524953746f726167653a2055524920717565727920666f722060008201527f6e6f6e6578697374656e7420746f6b656e000000000000000000000000000000602082015250565b7f4552433732313a20617070726f76656420717565727920666f72206e6f6e657860008201527f697374656e7420746f6b656e0000000000000000000000000000000000000000602082015250565b7f4f776e61626c653a2063616c6c6572206973206e6f7420746865206f776e6572600082015250565b7f4552433732314d657461646174613a2055524920717565727920666f72206e6f60008201527f6e6578697374656e7420746f6b656e0000000000000000000000000000000000602082015250565b7f496e73756666696369656e742065746865722073656e74000000000000000000600082015250565b7f4552433732313a20617070726f76616c20746f2063757272656e74206f776e6560008201527f7200000000000000000000000000000000000000000000000000000000000000602082015250565b7f4552433732313a207472616e736665722063616c6c6572206973206e6f74206f60008201527f776e6572206e6f7220617070726f766564000000000000000000000000000000602082015250565b6139a781613183565b81146139b257600080fd5b50565b6139be81613195565b81146139c957600080fd5b50565b6139d5816131a1565b81146139e057600080fd5b50565b6139ec816131ab565b81146139f757600080fd5b50565b613a03816131f7565b8114613a0e57600080fd5b5056fea2646970667358221220c91a1e2f40f08a7ccc12ada703601444619a31da5cf490de044d1e1e3023288064736f6c63430008040033",
  "linkReferences": {},
  "deployedLinkReferences": {}
}