{
  "_format": "hh-sol-artifact-1",
  "contractName": "IndexIt",
  "sourceName": "contracts/IndexIt.sol",
  "abi": [
    {
      "inputs": [],
      "stateMutability": "nonpayable",
      "type": "constructor"
    },
    {
      "anonymous": false,
      "inputs": [
        {
          "indexed": true,
          "internalType": "address",
          "name": "owner",
          "type": "address"
        },
        {
          "indexed": true,
          "internalType": "address",
          "name": "approved",
          "type": "address"
        },
        {
          "indexed": true,
          "internalType": "uint256",
          "name": "tokenId",
          "type": "uint256"
        }
      ],
      "name": "Approval",
      "type": "event"
    },
    {
      "anonymous": false,
      "inputs": [
        {
          "indexed": true,
          "internalType": "address",
          "name": "owner",
          "type": "address"
        },
        {
          "indexed": true,
          "internalType": "address",
          "name": "operator",
          "type": "address"
        },
        {
          "indexed": false,
          "internalType": "bool",
          "name": "approved",
          "type": "bool"
        }
      ],
      "name": "ApprovalForAll",
      "type": "event"
    },
    {
      "anonymous": false,
      "inputs": [
        {
          "indexed": true,
          "internalType": "address",
          "name": "previousOwner",
          "type": "address"
        },
        {
          "indexed": true,
          "internalType": "address",
          "name": "newOwner",
          "type": "address"
        }
      ],
      "name": "OwnershipTransferred",
      "type": "event"
    },
    {
      "anonymous": false,
      "inputs": [
        {
          "indexed": true,
          "internalType": "address",
          "name": "from",
          "type": "address"
        },
        {
          "indexed": true,
          "internalType": "address",
          "name": "to",
          "type": "address"
        },
        {
          "indexed": true,
          "internalType": "uint256",
          "name": "tokenId",
          "type": "uint256"
        }
      ],
      "name": "Transfer",
      "type": "event"
    },
    {
      "inputs": [
        {
          "internalType": "address",
          "name": "to",
          "type": "address"
        },
        {
          "internalType": "uint256",
          "name": "tokenId",
          "type": "uint256"
        }
      ],
      "name": "approve",
      "outputs": [],
      "stateMutability": "nonpayable",
      "type": "function"
    },
    {
      "inputs": [
        {
          "internalType": "address",
          "name": "owner",
          "type": "address"
        }
      ],
      "name": "balanceOf",
      "outputs": [
        {
          "internalType": "uint256",
          "name": "",
          "type": "uint256"
        }
      ],
      "stateMutability": "view",
      "type": "function"
    },
    {
      "inputs": [
        {
          "internalType": "string",
          "name": "name",
          "type": "string"
        }
      ],
      "name": "computeNameHash",
      "outputs": [
        {
          "internalType": "bytes32",
          "name": "namehash",
          "type": "bytes32"
        }
      ],
      "stateMutability": "pure",
      "type": "function"
    },
    {
      "inputs": [
        {
          "internalType": "uint256",
          "name": "tokenId",
          "type": "uint256"
        }
      ],
      "name": "getApproved",
      "outputs": [
        {
          "internalType": "address",
          "name": "",
          "type": "address"
        }
      ],
      "stateMutability": "view",
      "type": "function"
    },
    {
      "inputs": [
        {
          "internalType": "address",
          "name": "owner",
          "type": "address"
        },
        {
          "internalType": "address",
          "name": "operator",
          "type": "address"
        }
      ],
      "name": "isApprovedForAll",
      "outputs": [
        {
          "internalType": "bool",
          "name": "",
          "type": "bool"
        }
      ],
      "stateMutability": "view",
      "type": "function"
    },
    {
      "inputs": [
        {
          "internalType": "bytes32",
          "name": "hash",
          "type": "bytes32"
        },
        {
          "internalType": "string",
          "name": "message",
          "type": "string"
        },
        {
          "internalType": "bytes",
          "name": "signature",
          "type": "bytes"
        },
        {
          "internalType": "string",
          "name": "uri",
          "type": "string"
        },
        {
          "internalType": "string",
          "name": "name",
          "type": "string"
        }
      ],
      "name": "mintToken",
      "outputs": [],
      "stateMutability": "payable",
      "type": "function"
    },
    {
      "inputs": [],
      "name": "name",
      "outputs": [
        {
          "internalType": "string",
          "name": "",
          "type": "string"
        }
      ],
      "stateMutability": "view",
      "type": "function"
    },
    {
      "inputs": [],
      "name": "owner",
      "outputs": [
        {
          "internalType": "address",
          "name": "",
          "type": "address"
        }
      ],
      "stateMutability": "view",
      "type": "function"
    },
    {
      "inputs": [
        {
          "internalType": "uint256",
          "name": "tokenId",
          "type": "uint256"
        }
      ],
      "name": "ownerOf",
      "outputs": [
        {
          "internalType": "address",
          "name": "",
          "type": "address"
        }
      ],
      "stateMutability": "view",
      "type": "function"
    },
    {
      "inputs": [
        {
          "internalType": "string",
          "name": "name",
          "type": "string"
        }
      ],
      "name": "price",
      "outputs": [
        {
          "internalType": "uint256",
          "name": "",
          "type": "uint256"
        }
      ],
      "stateMutability": "pure",
      "type": "function"
    },
    {
      "inputs": [],
      "name": "priceIdiotClub",
      "outputs": [
        {
          "internalType": "uint256",
          "name": "",
          "type": "uint256"
        }
      ],
      "stateMutability": "view",
      "type": "function"
    },
    {
      "inputs": [],
      "name": "priceTier1",
      "outputs": [
        {
          "internalType": "uint256",
          "name": "",
          "type": "uint256"
        }
      ],
      "stateMutability": "view",
      "type": "function"
    },
    {
      "inputs": [],
      "name": "priceTier2",
      "outputs": [
        {
          "internalType": "uint256",
          "name": "",
          "type": "uint256"
        }
      ],
      "stateMutability": "view",
      "type": "function"
    },
    {
      "inputs": [],
      "name": "priceTier3",
      "outputs": [
        {
          "internalType": "uint256",
          "name": "",
          "type": "uint256"
        }
      ],
      "stateMutability": "view",
      "type": "function"
    },
    {
      "inputs": [],
      "name": "renounceOwnership",
      "outputs": [],
      "stateMutability": "nonpayable",
      "type": "function"
    },
    {
      "inputs": [
        {
          "internalType": "bytes32",
          "name": "node",
          "type": "bytes32"
        }
      ],
      "name": "resolve",
      "outputs": [
        {
          "internalType": "address",
          "name": "",
          "type": "address"
        }
      ],
      "stateMutability": "view",
      "type": "function"
    },
    {
      "inputs": [
        {
          "internalType": "address",
          "name": "from",
          "type": "address"
        },
        {
          "internalType": "address",
          "name": "to",
          "type": "address"
        },
        {
          "internalType": "uint256",
          "name": "tokenId",
          "type": "uint256"
        }
      ],
      "name": "safeTransferFrom",
      "outputs": [],
      "stateMutability": "nonpayable",
      "type": "function"
    },
    {
      "inputs": [
        {
          "internalType": "address",
          "name": "from",
          "type": "address"
        },
        {
          "internalType": "address",
          "name": "to",
          "type": "address"
        },
        {
          "internalType": "uint256",
          "name": "tokenId",
          "type": "uint256"
        },
        {
          "internalType": "bytes",
          "name": "_data",
          "type": "bytes"
        }
      ],
      "name": "safeTransferFrom",
      "outputs": [],
      "stateMutability": "nonpayable",
      "type": "function"
    },
    {
      "inputs": [
        {
          "internalType": "address",
          "name": "operator",
          "type": "address"
        },
        {
          "internalType": "bool",
          "name": "approved",
          "type": "bool"
        }
      ],
      "name": "setApprovalForAll",
      "outputs": [],
      "stateMutability": "nonpayable",
      "type": "function"
    },
    {
      "inputs": [
        {
          "internalType": "bytes4",
          "name": "interfaceId",
          "type": "bytes4"
        }
      ],
      "name": "supportsInterface",
      "outputs": [
        {
          "internalType": "bool",
          "name": "",
          "type": "bool"
        }
      ],
      "stateMutability": "view",
      "type": "function"
    },
    {
      "inputs": [],
      "name": "symbol",
      "outputs": [
        {
          "internalType": "string",
          "name": "",
          "type": "string"
        }
      ],
      "stateMutability": "view",
      "type": "function"
    },
    {
      "inputs": [
        {
          "internalType": "uint256",
          "name": "tokenId",
          "type": "uint256"
        }
      ],
      "name": "tokenURI",
      "outputs": [
        {
          "internalType": "string",
          "name": "",
          "type": "string"
        }
      ],
      "stateMutability": "view",
      "type": "function"
    },
    {
      "inputs": [
        {
          "internalType": "address",
          "name": "from",
          "type": "address"
        },
        {
          "internalType": "address",
          "name": "to",
          "type": "address"
        },
        {
          "internalType": "uint256",
          "name": "tokenId",
          "type": "uint256"
        }
      ],
      "name": "transferFrom",
      "outputs": [],
      "stateMutability": "nonpayable",
      "type": "function"
    },
    {
      "inputs": [
        {
          "internalType": "address",
          "name": "newOwner",
          "type": "address"
        }
      ],
      "name": "transferOwnership",
      "outputs": [],
      "stateMutability": "nonpayable",
      "type": "function"
    },
    {
      "inputs": [],
      "name": "withdraw",
      "outputs": [],
      "stateMutability": "nonpayable",
      "type": "function"
    }
  ],
  "bytecode": "0x60806040526e0c2e074ec69a0dfb2997ba6c7d2e1e600960006101000a81548173ffffffffffffffffffffffffffffffffffffffff021916908373ffffffffffffffffffffffffffffffffffffffff1602179055503480156200006157600080fd5b506040518060400160405280600981526020017f494947656e6573697300000000000000000000000000000000000000000000008152506040518060400160405280600381526020017f49494700000000000000000000000000000000000000000000000000000000008152508160009080519060200190620000e6929190620001f6565b508060019080519060200190620000ff929190620001f6565b50505062000122620001166200012860201b60201c565b6200013060201b60201c565b6200030b565b600033905090565b6000600760009054906101000a900473ffffffffffffffffffffffffffffffffffffffff16905081600760006101000a81548173ffffffffffffffffffffffffffffffffffffffff021916908373ffffffffffffffffffffffffffffffffffffffff1602179055508173ffffffffffffffffffffffffffffffffffffffff168173ffffffffffffffffffffffffffffffffffffffff167f8be0079c531659141344cd1fd0a4f28419497f9722a3daafe3b4186f6b6457e060405160405180910390a35050565b8280546200020490620002a6565b90600052602060002090601f01602090048101928262000228576000855562000274565b82601f106200024357805160ff191683800117855562000274565b8280016001018555821562000274579182015b828111156200027357825182559160200191906001019062000256565b5b50905062000283919062000287565b5090565b5b80821115620002a257600081600090555060010162000288565b5090565b60006002820490506001821680620002bf57607f821691505b60208210811415620002d657620002d5620002dc565b5b50919050565b7f4e487b7100000000000000000000000000000000000000000000000000000000600052602260045260246000fd5b614141806200031b6000396000f3fe6080604052600436106101665760003560e01c8063715018a6116100d1578063c87b56dd1161008a578063e985e9c511610064578063e985e9c51461052f578063f1a837d01461056c578063f2fde38b14610597578063fe2c6198146105c057610166565b8063c87b56dd146104ab578063cfd5f2ec146104e8578063d383d9bb1461050457610166565b8063715018a6146103af5780638da5cb5b146103c65780638e75454f146103f157806395d89b411461042e578063a22cb46514610459578063b88d4fde1461048257610166565b80632e53d474116101235780632e53d4741461028d5780633ccfd60b146102b857806342842e0e146102cf5780635c23bdf5146102f85780636352211e1461033557806370a082311461037257610166565b806301ffc9a71461016b57806306fdde03146101a8578063081812fc146101d3578063095ea7b31461021057806323b872dd146102395780632e1fb87414610262575b600080fd5b34801561017757600080fd5b50610192600480360381019061018d9190612b50565b6105fd565b60405161019f91906131d1565b60405180910390f35b3480156101b457600080fd5b506101bd6106df565b6040516101ca919061327c565b60405180910390f35b3480156101df57600080fd5b506101fa60048036038101906101f59190612c0c565b610771565b604051610207919061316a565b60405180910390f35b34801561021c57600080fd5b5061023760048036038101906102329190612a14565b6107f6565b005b34801561024557600080fd5b50610260600480360381019061025b919061290e565b61090e565b005b34801561026e57600080fd5b5061027761096e565b604051610284919061359e565b60405180910390f35b34801561029957600080fd5b506102a261097a565b6040516102af919061359e565b60405180910390f35b3480156102c457600080fd5b506102cd610985565b005b3480156102db57600080fd5b506102f660048036038101906102f1919061290e565b610a8d565b005b34801561030457600080fd5b5061031f600480360381019061031a9190612a50565b610aad565b60405161032c919061316a565b60405180910390f35b34801561034157600080fd5b5061035c60048036038101906103579190612c0c565b610bee565b604051610369919061316a565b60405180910390f35b34801561037e57600080fd5b5061039960048036038101906103949190612880565b610ca0565b6040516103a6919061359e565b60405180910390f35b3480156103bb57600080fd5b506103c4610d58565b005b3480156103d257600080fd5b506103db610de0565b6040516103e8919061316a565b60405180910390f35b3480156103fd57600080fd5b5061041860048036038101906104139190612bcb565b610e0a565b60405161042591906131ec565b60405180910390f35b34801561043a57600080fd5b50610443610eb7565b604051610450919061327c565b60405180910390f35b34801561046557600080fd5b50610480600480360381019061047b91906129d8565b610f49565b005b34801561048e57600080fd5b506104a960048036038101906104a4919061295d565b610f5f565b005b3480156104b757600080fd5b506104d260048036038101906104cd9190612c0c565b610fc1565b6040516104df919061327c565b60405180910390f35b61050260048036038101906104fd9190612a79565b611113565b005b34801561051057600080fd5b5061051961134f565b604051610526919061359e565b60405180910390f35b34801561053b57600080fd5b50610556600480360381019061055191906128d2565b61135a565b60405161056391906131d1565b60405180910390f35b34801561057857600080fd5b506105816113ee565b60405161058e919061359e565b60405180910390f35b3480156105a357600080fd5b506105be60048036038101906105b99190612880565b6113f9565b005b3480156105cc57600080fd5b506105e760048036038101906105e29190612bcb565b6114f1565b6040516105f4919061359e565b60405180910390f35b60007f80ac58cd000000000000000000000000000000000000000000000000000000007bffffffffffffffffffffffffffffffffffffffffffffffffffffffff1916827bffffffffffffffffffffffffffffffffffffffffffffffffffffffff191614806106c857507f5b5e139f000000000000000000000000000000000000000000000000000000007bffffffffffffffffffffffffffffffffffffffffffffffffffffffff1916827bffffffffffffffffffffffffffffffffffffffffffffffffffffffff1916145b806106d857506106d782611560565b5b9050919050565b6060600080546106ee9061381d565b80601f016020809104026020016040519081016040528092919081815260200182805461071a9061381d565b80156107675780601f1061073c57610100808354040283529160200191610767565b820191906000526020600020905b81548152906001019060200180831161074a57829003601f168201915b5050505050905090565b600061077c826115ca565b6107bb576040517f08c379a00000000000000000000000000000000000000000000000000000000081526004016107b2906134be565b60405180910390fd5b6004600083815260200190815260200160002060009054906101000a900473ffffffffffffffffffffffffffffffffffffffff169050919050565b600061080182610bee565b90508073ffffffffffffffffffffffffffffffffffffffff168373ffffffffffffffffffffffffffffffffffffffff161415610872576040517f08c379a00000000000000000000000000000000000000000000000000000000081526004016108699061351e565b60405180910390fd5b8073ffffffffffffffffffffffffffffffffffffffff16610891611636565b73ffffffffffffffffffffffffffffffffffffffff1614806108c057506108bf816108ba611636565b61135a565b5b6108ff576040517f08c379a00000000000000000000000000000000000000000000000000000000081526004016108f6906133de565b60405180910390fd5b610909838361163e565b505050565b61091f610919611636565b826116f7565b61095e576040517f08c379a00000000000000000000000000000000000000000000000000000000081526004016109559061355e565b60405180910390fd5b6109698383836117d5565b505050565b670de0b6b3a764000081565b66b1a2bc2ec5000081565b61098d611636565b73ffffffffffffffffffffffffffffffffffffffff166109ab610de0565b73ffffffffffffffffffffffffffffffffffffffff1614610a01576040517f08c379a00000000000000000000000000000000000000000000000000000000081526004016109f8906134de565b60405180910390fd5b60004711610a44576040517f08c379a0000000000000000000000000000000000000000000000000000000008152600401610a3b906132be565b60405180910390fd5b3373ffffffffffffffffffffffffffffffffffffffff166108fc479081150290604051600060405180830381858888f19350505050158015610a8a573d6000803e3d6000fd5b50565b610aa883838360405180602001604052806000815250610f5f565b505050565b600080600960009054906101000a900473ffffffffffffffffffffffffffffffffffffffff1673ffffffffffffffffffffffffffffffffffffffff16630178b8bf846040518263ffffffff1660e01b8152600401610b0b91906131ec565b60206040518083038186803b158015610b2357600080fd5b505afa158015610b37573d6000803e3d6000fd5b505050506040513d601f19601f82011682018060405250810190610b5b9190612ba2565b90508073ffffffffffffffffffffffffffffffffffffffff16633b3b57de846040518263ffffffff1660e01b8152600401610b9691906131ec565b60206040518083038186803b158015610bae57600080fd5b505afa158015610bc2573d6000803e3d6000fd5b505050506040513d601f19601f82011682018060405250810190610be691906128a9565b915050919050565b6000806002600084815260200190815260200160002060009054906101000a900473ffffffffffffffffffffffffffffffffffffffff169050600073ffffffffffffffffffffffffffffffffffffffff168173ffffffffffffffffffffffffffffffffffffffff161415610c97576040517f08c379a0000000000000000000000000000000000000000000000000000000008152600401610c8e9061341e565b60405180910390fd5b80915050919050565b60008073ffffffffffffffffffffffffffffffffffffffff168273ffffffffffffffffffffffffffffffffffffffff161415610d11576040517f08c379a0000000000000000000000000000000000000000000000000000000008152600401610d08906133fe565b60405180910390fd5b600360008373ffffffffffffffffffffffffffffffffffffffff1673ffffffffffffffffffffffffffffffffffffffff168152602001908152602001600020549050919050565b610d60611636565b73ffffffffffffffffffffffffffffffffffffffff16610d7e610de0565b73ffffffffffffffffffffffffffffffffffffffff1614610dd4576040517f08c379a0000000000000000000000000000000000000000000000000000000008152600401610dcb906134de565b60405180910390fd5b610dde6000611a3c565b565b6000600760009054906101000a900473ffffffffffffffffffffffffffffffffffffffff16905090565b60008060001b905080604051602001610e2290613155565b60405160208183030381529060405280519060200120604051602001610e499291906130c8565b6040516020818303038152906040528051906020012090508082604051602001610e7391906130f4565b60405160208183030381529060405280519060200120604051602001610e9a9291906130c8565b604051602081830303815290604052805190602001209050919050565b606060018054610ec69061381d565b80601f0160208091040260200160405190810160405280929190818152602001828054610ef29061381d565b8015610f3f5780601f10610f1457610100808354040283529160200191610f3f565b820191906000526020600020905b815481529060010190602001808311610f2257829003601f168201915b5050505050905090565b610f5b610f54611636565b8383611b02565b5050565b610f70610f6a611636565b836116f7565b610faf576040517f08c379a0000000000000000000000000000000000000000000000000000000008152600401610fa69061355e565b60405180910390fd5b610fbb84848484611c6f565b50505050565b6060610fcc826115ca565b61100b576040517f08c379a00000000000000000000000000000000000000000000000000000000081526004016110029061349e565b60405180910390fd5b600060066000848152602001908152602001600020805461102b9061381d565b80601f01602080910402602001604051908101604052809291908181526020018280546110579061381d565b80156110a45780601f10611079576101008083540402835291602001916110a4565b820191906000526020600020905b81548152906001019060200180831161108757829003601f168201915b5050505050905060006110b5611ccb565b90506000815114156110cb57819250505061110e565b6000825111156111005780826040516020016110e892919061310b565b6040516020818303038152906040529250505061110e565b61110984611ce2565b925050505b919050565b60008585604051602001611128929190613207565b604051602081830303815290604052805190602001209050600061114b82611d89565b905060006111598287611db9565b9050600061116685610e0a565b9050600061117382610aad565b90508273ffffffffffffffffffffffffffffffffffffffff163373ffffffffffffffffffffffffffffffffffffffff16146111e3576040517f08c379a00000000000000000000000000000000000000000000000000000000081526004016111da906132fe565b60405180910390fd5b8073ffffffffffffffffffffffffffffffffffffffff163373ffffffffffffffffffffffffffffffffffffffff1614611251576040517f08c379a00000000000000000000000000000000000000000000000000000000081526004016112489061357e565b60405180910390fd5b8273ffffffffffffffffffffffffffffffffffffffff168173ffffffffffffffffffffffffffffffffffffffff16146112bf576040517f08c379a00000000000000000000000000000000000000000000000000000000081526004016112b69061353e565b60405180910390fd5b60006112cb6008611e2e565b905060006112d8886114f1565b90508034101561131d576040517f08c379a00000000000000000000000000000000000000000000000000000000081526004016113149061329e565b60405180910390fd5b600089905061132c3384611e3c565b6113368382612016565b611340600861208a565b50505050505050505050505050565b662386f26fc1000081565b6000600560008473ffffffffffffffffffffffffffffffffffffffff1673ffffffffffffffffffffffffffffffffffffffff16815260200190815260200160002060008373ffffffffffffffffffffffffffffffffffffffff1673ffffffffffffffffffffffffffffffffffffffff16815260200190815260200160002060009054906101000a900460ff16905092915050565b6611c37937e0800081565b611401611636565b73ffffffffffffffffffffffffffffffffffffffff1661141f610de0565b73ffffffffffffffffffffffffffffffffffffffff1614611475576040517f08c379a000000000000000000000000000000000000000000000000000000000815260040161146c906134de565b60405180910390fd5b600073ffffffffffffffffffffffffffffffffffffffff168173ffffffffffffffffffffffffffffffffffffffff1614156114e5576040517f08c379a00000000000000000000000000000000000000000000000000000000081526004016114dc9061331e565b60405180910390fd5b6114ee81611a3c565b50565b6000806114fd836120a0565b9050600060038214156115195766b1a2bc2ec500009050611556565b600482141561153157662386f26fc100009050611555565b60058210611548576611c37937e080009050611554565b670de0b6b3a764000090505b5b5b8092505050919050565b60007f01ffc9a7000000000000000000000000000000000000000000000000000000007bffffffffffffffffffffffffffffffffffffffffffffffffffffffff1916827bffffffffffffffffffffffffffffffffffffffffffffffffffffffff1916149050919050565b60008073ffffffffffffffffffffffffffffffffffffffff166002600084815260200190815260200160002060009054906101000a900473ffffffffffffffffffffffffffffffffffffffff1673ffffffffffffffffffffffffffffffffffffffff1614159050919050565b600033905090565b816004600083815260200190815260200160002060006101000a81548173ffffffffffffffffffffffffffffffffffffffff021916908373ffffffffffffffffffffffffffffffffffffffff160217905550808273ffffffffffffffffffffffffffffffffffffffff166116b183610bee565b73ffffffffffffffffffffffffffffffffffffffff167f8c5be1e5ebec7d5bd14f71427d1e84f3dd0314c0f7b2291e5b200ac8c7c3b92560405160405180910390a45050565b6000611702826115ca565b611741576040517f08c379a0000000000000000000000000000000000000000000000000000000008152600401611738906133be565b60405180910390fd5b600061174c83610bee565b90508073ffffffffffffffffffffffffffffffffffffffff168473ffffffffffffffffffffffffffffffffffffffff16148061178e575061178d818561135a565b5b806117cc57508373ffffffffffffffffffffffffffffffffffffffff166117b484610771565b73ffffffffffffffffffffffffffffffffffffffff16145b91505092915050565b8273ffffffffffffffffffffffffffffffffffffffff166117f582610bee565b73ffffffffffffffffffffffffffffffffffffffff161461184b576040517f08c379a00000000000000000000000000000000000000000000000000000000081526004016118429061333e565b60405180910390fd5b600073ffffffffffffffffffffffffffffffffffffffff168273ffffffffffffffffffffffffffffffffffffffff1614156118bb576040517f08c379a00000000000000000000000000000000000000000000000000000000081526004016118b29061337e565b60405180910390fd5b6118c683838361227b565b6118d160008261163e565b6001600360008573ffffffffffffffffffffffffffffffffffffffff1673ffffffffffffffffffffffffffffffffffffffff1681526020019081526020016000206000828254611921919061370a565b925050819055506001600360008473ffffffffffffffffffffffffffffffffffffffff1673ffffffffffffffffffffffffffffffffffffffff16815260200190815260200160002060008282546119789190613683565b92505081905550816002600083815260200190815260200160002060006101000a81548173ffffffffffffffffffffffffffffffffffffffff021916908373ffffffffffffffffffffffffffffffffffffffff160217905550808273ffffffffffffffffffffffffffffffffffffffff168473ffffffffffffffffffffffffffffffffffffffff167fddf252ad1be2c89b69c2b068fc378daa952ba7f163c4a11628f55a4df523b3ef60405160405180910390a4611a37838383612280565b505050565b6000600760009054906101000a900473ffffffffffffffffffffffffffffffffffffffff16905081600760006101000a81548173ffffffffffffffffffffffffffffffffffffffff021916908373ffffffffffffffffffffffffffffffffffffffff1602179055508173ffffffffffffffffffffffffffffffffffffffff168173ffffffffffffffffffffffffffffffffffffffff167f8be0079c531659141344cd1fd0a4f28419497f9722a3daafe3b4186f6b6457e060405160405180910390a35050565b8173ffffffffffffffffffffffffffffffffffffffff168373ffffffffffffffffffffffffffffffffffffffff161415611b71576040517f08c379a0000000000000000000000000000000000000000000000000000000008152600401611b689061339e565b60405180910390fd5b80600560008573ffffffffffffffffffffffffffffffffffffffff1673ffffffffffffffffffffffffffffffffffffffff16815260200190815260200160002060008473ffffffffffffffffffffffffffffffffffffffff1673ffffffffffffffffffffffffffffffffffffffff16815260200190815260200160002060006101000a81548160ff0219169083151502179055508173ffffffffffffffffffffffffffffffffffffffff168373ffffffffffffffffffffffffffffffffffffffff167f17307eab39ab6107e8899845ad3d59bd9653f200f220920489ca2b5937696c3183604051611c6291906131d1565b60405180910390a3505050565b611c7a8484846117d5565b611c8684848484612285565b611cc5576040517f08c379a0000000000000000000000000000000000000000000000000000000008152600401611cbc906132de565b60405180910390fd5b50505050565b606060405180602001604052806000815250905090565b6060611ced826115ca565b611d2c576040517f08c379a0000000000000000000000000000000000000000000000000000000008152600401611d23906134fe565b60405180910390fd5b6000611d36611ccb565b90506000815111611d565760405180602001604052806000815250611d81565b80611d608461241c565b604051602001611d7192919061310b565b6040516020818303038152906040525b915050919050565b600081604051602001611d9c919061312f565b604051602081830303815290604052805190602001209050919050565b600080600080611dc8856125c9565b80935081945082955050505060018684848460405160008152602001604052604051611df79493929190613237565b6020604051602081039080840390855afa158015611e19573d6000803e3d6000fd5b50505060206040510351935050505092915050565b600081600001549050919050565b600073ffffffffffffffffffffffffffffffffffffffff168273ffffffffffffffffffffffffffffffffffffffff161415611eac576040517f08c379a0000000000000000000000000000000000000000000000000000000008152600401611ea39061347e565b60405180910390fd5b611eb5816115ca565b15611ef5576040517f08c379a0000000000000000000000000000000000000000000000000000000008152600401611eec9061335e565b60405180910390fd5b611f016000838361227b565b6001600360008473ffffffffffffffffffffffffffffffffffffffff1673ffffffffffffffffffffffffffffffffffffffff1681526020019081526020016000206000828254611f519190613683565b92505081905550816002600083815260200190815260200160002060006101000a81548173ffffffffffffffffffffffffffffffffffffffff021916908373ffffffffffffffffffffffffffffffffffffffff160217905550808273ffffffffffffffffffffffffffffffffffffffff16600073ffffffffffffffffffffffffffffffffffffffff167fddf252ad1be2c89b69c2b068fc378daa952ba7f163c4a11628f55a4df523b3ef60405160405180910390a461201260008383612280565b5050565b61201f826115ca565b61205e576040517f08c379a00000000000000000000000000000000000000000000000000000000081526004016120559061345e565b60405180910390fd5b80600660008481526020019081526020016000209080519060200190612085929190612665565b505050565b6001816000016000828254019250508190555050565b60008060008084519050600092505b808210156122705760008583815181106120f2577f4e487b7100000000000000000000000000000000000000000000000000000000600052603260045260246000fd5b602001015160f81c60f81b9050608060f81b817effffffffffffffffffffffffffffffffffffffffffffffffffffffffffffff191610156121415760018361213a9190613683565b925061225c565b60e060f81b817effffffffffffffffffffffffffffffffffffffffffffffffffffffffffffff191610156121835760028361217c9190613683565b925061225b565b60f060f81b817effffffffffffffffffffffffffffffffffffffffffffffffffffffffffffff191610156121c5576003836121be9190613683565b925061225a565b60f8801b817effffffffffffffffffffffffffffffffffffffffffffffffffffffffffffff19161015612206576004836121ff9190613683565b9250612259565b60fc60f81b817effffffffffffffffffffffffffffffffffffffffffffffffffffffffffffff19161015612248576005836122419190613683565b9250612258565b6006836122559190613683565b92505b5b5b5b5b50828061226890613880565b9350506120af565b829350505050919050565b505050565b505050565b60006122a68473ffffffffffffffffffffffffffffffffffffffff16612642565b1561240f578373ffffffffffffffffffffffffffffffffffffffff1663150b7a026122cf611636565b8786866040518563ffffffff1660e01b81526004016122f19493929190613185565b602060405180830381600087803b15801561230b57600080fd5b505af192505050801561233c57506040513d601f19601f820116820180604052508101906123399190612b79565b60015b6123bf573d806000811461236c576040519150601f19603f3d011682016040523d82523d6000602084013e612371565b606091505b506000815114156123b7576040517f08c379a00000000000000000000000000000000000000000000000000000000081526004016123ae906132de565b60405180910390fd5b805181602001fd5b63150b7a0260e01b7bffffffffffffffffffffffffffffffffffffffffffffffffffffffff1916817bffffffffffffffffffffffffffffffffffffffffffffffffffffffff191614915050612414565b600190505b949350505050565b60606000821415612464576040518060400160405280600181526020017f300000000000000000000000000000000000000000000000000000000000000081525090506125c4565b600082905060005b6000821461249657808061247f90613880565b915050600a8261248f91906136d9565b915061246c565b60008167ffffffffffffffff8111156124d8577f4e487b7100000000000000000000000000000000000000000000000000000000600052604160045260246000fd5b6040519080825280601f01601f19166020018201604052801561250a5781602001600182028036833780820191505090505b5090505b600085146125bd57600182612523919061370a565b9150600a8561253291906138d3565b603061253e9190613683565b60f81b81838151811061257a577f4e487b7100000000000000000000000000000000000000000000000000000000600052603260045260246000fd5b60200101907effffffffffffffffffffffffffffffffffffffffffffffffffffffffffffff1916908160001a905350600a856125b691906136d9565b945061250e565b8093505050505b919050565b60008060006041845114612612576040517f08c379a00000000000000000000000000000000000000000000000000000000081526004016126099061343e565b60405180910390fd5b60008060006020870151925060408701519150606087015160001a90508083839550955095505050509193909250565b6000808273ffffffffffffffffffffffffffffffffffffffff163b119050919050565b8280546126719061381d565b90600052602060002090601f01602090048101928261269357600085556126da565b82601f106126ac57805160ff19168380011785556126da565b828001600101855582156126da579182015b828111156126d95782518255916020019190600101906126be565b5b5090506126e791906126eb565b5090565b5b808211156127045760008160009055506001016126ec565b5090565b600061271b612716846135de565b6135b9565b90508281526020810184848401111561273357600080fd5b61273e8482856137db565b509392505050565b60006127596127548461360f565b6135b9565b90508281526020810184848401111561277157600080fd5b61277c8482856137db565b509392505050565b60008135905061279381614081565b92915050565b6000815190506127a881614081565b92915050565b6000813590506127bd81614098565b92915050565b6000813590506127d2816140af565b92915050565b6000813590506127e7816140c6565b92915050565b6000815190506127fc816140c6565b92915050565b600082601f83011261281357600080fd5b8135612823848260208601612708565b91505092915050565b60008151905061283b816140dd565b92915050565b600082601f83011261285257600080fd5b8135612862848260208601612746565b91505092915050565b60008135905061287a816140f4565b92915050565b60006020828403121561289257600080fd5b60006128a084828501612784565b91505092915050565b6000602082840312156128bb57600080fd5b60006128c984828501612799565b91505092915050565b600080604083850312156128e557600080fd5b60006128f385828601612784565b925050602061290485828601612784565b9150509250929050565b60008060006060848603121561292357600080fd5b600061293186828701612784565b935050602061294286828701612784565b92505060406129538682870161286b565b9150509250925092565b6000806000806080858703121561297357600080fd5b600061298187828801612784565b945050602061299287828801612784565b93505060406129a38782880161286b565b925050606085013567ffffffffffffffff8111156129c057600080fd5b6129cc87828801612802565b91505092959194509250565b600080604083850312156129eb57600080fd5b60006129f985828601612784565b9250506020612a0a858286016127ae565b9150509250929050565b60008060408385031215612a2757600080fd5b6000612a3585828601612784565b9250506020612a468582860161286b565b9150509250929050565b600060208284031215612a6257600080fd5b6000612a70848285016127c3565b91505092915050565b600080600080600060a08688031215612a9157600080fd5b6000612a9f888289016127c3565b955050602086013567ffffffffffffffff811115612abc57600080fd5b612ac888828901612841565b945050604086013567ffffffffffffffff811115612ae557600080fd5b612af188828901612802565b935050606086013567ffffffffffffffff811115612b0e57600080fd5b612b1a88828901612841565b925050608086013567ffffffffffffffff811115612b3757600080fd5b612b4388828901612841565b9150509295509295909350565b600060208284031215612b6257600080fd5b6000612b70848285016127d8565b91505092915050565b600060208284031215612b8b57600080fd5b6000612b99848285016127ed565b91505092915050565b600060208284031215612bb457600080fd5b6000612bc28482850161282c565b91505092915050565b600060208284031215612bdd57600080fd5b600082013567ffffffffffffffff811115612bf757600080fd5b612c0384828501612841565b91505092915050565b600060208284031215612c1e57600080fd5b6000612c2c8482850161286b565b91505092915050565b612c3e8161373e565b82525050565b612c4d81613750565b82525050565b612c5c8161375c565b82525050565b612c73612c6e8261375c565b6138c9565b82525050565b6000612c8482613640565b612c8e8185613656565b9350612c9e8185602086016137ea565b612ca7816139c0565b840191505092915050565b6000612cbd8261364b565b612cc78185613667565b9350612cd78185602086016137ea565b612ce0816139c0565b840191505092915050565b6000612cf68261364b565b612d008185613678565b9350612d108185602086016137ea565b80840191505092915050565b6000612d29602483613667565b9150612d34826139d1565b604082019050919050565b6000612d4c601c83613678565b9150612d5782613a20565b601c82019050919050565b6000612d6f602a83613667565b9150612d7a82613a49565b604082019050919050565b6000612d92603283613667565b9150612d9d82613a98565b604082019050919050565b6000612db5601283613667565b9150612dc082613ae7565b602082019050919050565b6000612dd8602683613667565b9150612de382613b10565b604082019050919050565b6000612dfb602583613667565b9150612e0682613b5f565b604082019050919050565b6000612e1e601c83613667565b9150612e2982613bae565b602082019050919050565b6000612e41602483613667565b9150612e4c82613bd7565b604082019050919050565b6000612e64601983613667565b9150612e6f82613c26565b602082019050919050565b6000612e87600383613678565b9150612e9282613c4f565b600382019050919050565b6000612eaa602c83613667565b9150612eb582613c78565b604082019050919050565b6000612ecd603883613667565b9150612ed882613cc7565b604082019050919050565b6000612ef0602a83613667565b9150612efb82613d16565b604082019050919050565b6000612f13602983613667565b9150612f1e82613d65565b604082019050919050565b6000612f36601683613667565b9150612f4182613db4565b602082019050919050565b6000612f59602e83613667565b9150612f6482613ddd565b604082019050919050565b6000612f7c602083613667565b9150612f8782613e2c565b602082019050919050565b6000612f9f603183613667565b9150612faa82613e55565b604082019050919050565b6000612fc2602c83613667565b9150612fcd82613ea4565b604082019050919050565b6000612fe5602083613667565b9150612ff082613ef3565b602082019050919050565b6000613008602f83613667565b915061301382613f1c565b604082019050919050565b600061302b602183613667565b915061303682613f6b565b604082019050919050565b600061304e602783613667565b915061305982613fba565b604082019050919050565b6000613071603183613667565b915061307c82614009565b604082019050919050565b6000613094601f83613667565b915061309f82614058565b602082019050919050565b6130b3816137c4565b82525050565b6130c2816137ce565b82525050565b60006130d48285612c62565b6020820191506130e48284612c62565b6020820191508190509392505050565b60006131008284612ceb565b915081905092915050565b60006131178285612ceb565b91506131238284612ceb565b91508190509392505050565b600061313a82612d3f565b91506131468284612c62565b60208201915081905092915050565b600061316082612e7a565b9150819050919050565b600060208201905061317f6000830184612c35565b92915050565b600060808201905061319a6000830187612c35565b6131a76020830186612c35565b6131b460408301856130aa565b81810360608301526131c68184612c79565b905095945050505050565b60006020820190506131e66000830184612c44565b92915050565b60006020820190506132016000830184612c53565b92915050565b600060408201905061321c6000830185612c53565b818103602083015261322e8184612cb2565b90509392505050565b600060808201905061324c6000830187612c53565b61325960208301866130b9565b6132666040830185612c53565b6132736060830184612c53565b95945050505050565b600060208201905081810360008301526132968184612cb2565b905092915050565b600060208201905081810360008301526132b781612d1c565b9050919050565b600060208201905081810360008301526132d781612d62565b9050919050565b600060208201905081810360008301526132f781612d85565b9050919050565b6000602082019050818103600083015261331781612da8565b9050919050565b6000602082019050818103600083015261333781612dcb565b9050919050565b6000602082019050818103600083015261335781612dee565b9050919050565b6000602082019050818103600083015261337781612e11565b9050919050565b6000602082019050818103600083015261339781612e34565b9050919050565b600060208201905081810360008301526133b781612e57565b9050919050565b600060208201905081810360008301526133d781612e9d565b9050919050565b600060208201905081810360008301526133f781612ec0565b9050919050565b6000602082019050818103600083015261341781612ee3565b9050919050565b6000602082019050818103600083015261343781612f06565b9050919050565b6000602082019050818103600083015261345781612f29565b9050919050565b6000602082019050818103600083015261347781612f4c565b9050919050565b6000602082019050818103600083015261349781612f6f565b9050919050565b600060208201905081810360008301526134b781612f92565b9050919050565b600060208201905081810360008301526134d781612fb5565b9050919050565b600060208201905081810360008301526134f781612fd8565b9050919050565b6000602082019050818103600083015261351781612ffb565b9050919050565b600060208201905081810360008301526135378161301e565b9050919050565b6000602082019050818103600083015261355781613041565b9050919050565b6000602082019050818103600083015261357781613064565b9050919050565b6000602082019050818103600083015261359781613087565b9050919050565b60006020820190506135b360008301846130aa565b92915050565b60006135c36135d4565b90506135cf828261384f565b919050565b6000604051905090565b600067ffffffffffffffff8211156135f9576135f8613991565b5b613602826139c0565b9050602081019050919050565b600067ffffffffffffffff82111561362a57613629613991565b5b613633826139c0565b9050602081019050919050565b600081519050919050565b600081519050919050565b600082825260208201905092915050565b600082825260208201905092915050565b600081905092915050565b600061368e826137c4565b9150613699836137c4565b9250827fffffffffffffffffffffffffffffffffffffffffffffffffffffffffffffffff038211156136ce576136cd613904565b5b828201905092915050565b60006136e4826137c4565b91506136ef836137c4565b9250826136ff576136fe613933565b5b828204905092915050565b6000613715826137c4565b9150613720836137c4565b92508282101561373357613732613904565b5b828203905092915050565b6000613749826137a4565b9050919050565b60008115159050919050565b6000819050919050565b60007fffffffff0000000000000000000000000000000000000000000000000000000082169050919050565b600061379d8261373e565b9050919050565b600073ffffffffffffffffffffffffffffffffffffffff82169050919050565b6000819050919050565b600060ff82169050919050565b82818337600083830152505050565b60005b838110156138085780820151818401526020810190506137ed565b83811115613817576000848401525b50505050565b6000600282049050600182168061383557607f821691505b6020821081141561384957613848613962565b5b50919050565b613858826139c0565b810181811067ffffffffffffffff8211171561387757613876613991565b5b80604052505050565b600061388b826137c4565b91507fffffffffffffffffffffffffffffffffffffffffffffffffffffffffffffffff8214156138be576138bd613904565b5b600182019050919050565b6000819050919050565b60006138de826137c4565b91506138e9836137c4565b9250826138f9576138f8613933565b5b828206905092915050565b7f4e487b7100000000000000000000000000000000000000000000000000000000600052601160045260246000fd5b7f4e487b7100000000000000000000000000000000000000000000000000000000600052601260045260246000fd5b7f4e487b7100000000000000000000000000000000000000000000000000000000600052602260045260246000fd5b7f4e487b7100000000000000000000000000000000000000000000000000000000600052604160045260246000fd5b6000601f19601f8301169050919050565b7f4265636175736520796f75206172652061206368656170206d6f74686572667560008201527f636b657200000000000000000000000000000000000000000000000000000000602082015250565b7f19457468657265756d205369676e6564204d6573736167653a0a333200000000600082015250565b7f5468657265206973206e6f206d6f6e657920696e2074686520636f6e7472616360008201527f742e205275676765642100000000000000000000000000000000000000000000602082015250565b7f4552433732313a207472616e7366657220746f206e6f6e20455243373231526560008201527f63656976657220696d706c656d656e7465720000000000000000000000000000602082015250565b7f506c65617365206e6f207363616d207365720000000000000000000000000000600082015250565b7f4f776e61626c653a206e6577206f776e657220697320746865207a65726f206160008201527f6464726573730000000000000000000000000000000000000000000000000000602082015250565b7f4552433732313a207472616e736665722066726f6d20696e636f72726563742060008201527f6f776e6572000000000000000000000000000000000000000000000000000000602082015250565b7f4552433732313a20746f6b656e20616c7265616479206d696e74656400000000600082015250565b7f4552433732313a207472616e7366657220746f20746865207a65726f2061646460008201527f7265737300000000000000000000000000000000000000000000000000000000602082015250565b7f4552433732313a20617070726f766520746f2063616c6c657200000000000000600082015250565b7f6574680000000000000000000000000000000000000000000000000000000000600082015250565b7f4552433732313a206f70657261746f7220717565727920666f72206e6f6e657860008201527f697374656e7420746f6b656e0000000000000000000000000000000000000000602082015250565b7f4552433732313a20617070726f76652063616c6c6572206973206e6f74206f7760008201527f6e6572206e6f7220617070726f76656420666f7220616c6c0000000000000000602082015250565b7f4552433732313a2062616c616e636520717565727920666f7220746865207a6560008201527f726f206164647265737300000000000000000000000000000000000000000000602082015250565b7f4552433732313a206f776e657220717565727920666f72206e6f6e657869737460008201527f656e7420746f6b656e0000000000000000000000000000000000000000000000602082015250565b7f5369676e6174757265206c656e67746820213d20363500000000000000000000600082015250565b7f45524337323155524953746f726167653a2055524920736574206f66206e6f6e60008201527f6578697374656e7420746f6b656e000000000000000000000000000000000000602082015250565b7f4552433732313a206d696e7420746f20746865207a65726f2061646472657373600082015250565b7f45524337323155524953746f726167653a2055524920717565727920666f722060008201527f6e6f6e6578697374656e7420746f6b656e000000000000000000000000000000602082015250565b7f4552433732313a20617070726f76656420717565727920666f72206e6f6e657860008201527f697374656e7420746f6b656e0000000000000000000000000000000000000000602082015250565b7f4f776e61626c653a2063616c6c6572206973206e6f7420746865206f776e6572600082015250565b7f4552433732314d657461646174613a2055524920717565727920666f72206e6f60008201527f6e6578697374656e7420746f6b656e0000000000000000000000000000000000602082015250565b7f4552433732313a20617070726f76616c20746f2063757272656e74206f776e6560008201527f7200000000000000000000000000000000000000000000000000000000000000602082015250565b7f5468657265206973206e6f206c6576656c20796f7520776f756c646e2774207360008201527f746f6f7020746f00000000000000000000000000000000000000000000000000602082015250565b7f4552433732313a207472616e736665722063616c6c6572206973206e6f74206f60008201527f776e6572206e6f7220617070726f766564000000000000000000000000000000602082015250565b7f446f6e2774206675636b20746879206e65696768626f75722773207769666500600082015250565b61408a8161373e565b811461409557600080fd5b50565b6140a181613750565b81146140ac57600080fd5b50565b6140b88161375c565b81146140c357600080fd5b50565b6140cf81613766565b81146140da57600080fd5b50565b6140e681613792565b81146140f157600080fd5b50565b6140fd816137c4565b811461410857600080fd5b5056fea2646970667358221220a104c430cc92525db6abab221c0d13ad2109a1c3ccdc08693e6a6772349d46a864736f6c63430008040033",
  "linkReferences": {},
  "deployedLinkReferences": {}
}